{"contracts/UtilContract.sol":{"UtilContract":{"abi":[{"inputs":[{"internalType":"uint256","name":"timestamp","type":"uint256"}],"name":"getDate","outputs":[{"internalType":"uint256","name":"yearMonthDay","type":"uint256"}],"stateMutability":"pure","type":"function"}],"evm":{"bytecode":{"linkReferences":{},"object":"608060405234801561001057600080fd5b50610597806100206000396000f3fe608060405234801561001057600080fd5b506004361061002b5760003560e01c80632b57298b14610030575b600080fd5b61004a60048036038101906100459190610329565b610060565b6040516100579190610365565b60405180910390f35b60008060008060006201518090506000818761007c91906103de565b9050600061016d8261008e91906103de565b9050806107b261009e919061040f565b9550600061016d826100b09190610443565b836100bb9190610485565b905060006107b290505b878110156101365760006004826100dc91906104b9565b14801561010e575060006064826100f391906104b9565b14158061010d575060006101908261010b91906104b9565b145b5b15610123576001826101209190610485565b91505b808061012e906104ea565b9150506100c5565b50603b811061019657600060048861014e91906104b9565b1480156101805750600060648861016591906104b9565b14158061017f575060006101908861017d91906104b9565b145b5b15610195576001816101929190610485565b90505b5b6000604051806101800160405280601f60ff168152602001601c60ff168152602001601f60ff168152602001601e60ff168152602001601f60ff168152602001601e60ff168152602001601f60ff168152602001601f60ff168152602001601e60ff168152602001601f60ff168152602001601e60ff168152602001601f60ff16815250905060005b600c8110156102a8578181600c811061023b5761023a610532565b5b602002015160ff1683101561026d57600181610257919061040f565b9750600183610266919061040f565b96506102a8565b8181600c81106102805761027f610532565b5b602002015160ff16836102939190610485565b925080806102a0906104ea565b91505061021f565b50612710886102b79190610443565b98506064876102c69190610443565b896102d1919061040f565b985085896102df919061040f565b98505050505050505050919050565b600080fd5b6000819050919050565b610306816102f3565b811461031157600080fd5b50565b600081359050610323816102fd565b92915050565b60006020828403121561033f5761033e6102ee565b5b600061034d84828501610314565b91505092915050565b61035f816102f3565b82525050565b600060208201905061037a6000830184610356565b92915050565b7f4e487b7100000000000000000000000000000000000000000000000000000000600052601260045260246000fd5b7f4e487b7100000000000000000000000000000000000000000000000000000000600052601160045260246000fd5b60006103e9826102f3565b91506103f4836102f3565b92508261040457610403610380565b5b828204905092915050565b600061041a826102f3565b9150610425836102f3565b925082820190508082111561043d5761043c6103af565b5b92915050565b600061044e826102f3565b9150610459836102f3565b9250828202610467816102f3565b9150828204841483151761047e5761047d6103af565b5b5092915050565b6000610490826102f3565b915061049b836102f3565b92508282039050818111156104b3576104b26103af565b5b92915050565b60006104c4826102f3565b91506104cf836102f3565b9250826104df576104de610380565b5b828206905092915050565b60006104f5826102f3565b91507fffffffffffffffffffffffffffffffffffffffffffffffffffffffffffffffff8203610527576105266103af565b5b600182019050919050565b7f4e487b7100000000000000000000000000000000000000000000000000000000600052603260045260246000fdfea264697066735822122064e1b253c6b088a47b24029649ed97eb2816ff9fc325b5b8adb263b91544e33464736f6c63430008110033","opcodes":"PUSH1 0x80 PUSH1 0x40 MSTORE CALLVALUE DUP1 ISZERO PUSH2 0x10 JUMPI PUSH1 0x0 DUP1 REVERT JUMPDEST POP PUSH2 0x597 DUP1 PUSH2 0x20 PUSH1 0x0 CODECOPY PUSH1 0x0 RETURN INVALID PUSH1 0x80 PUSH1 0x40 MSTORE CALLVALUE DUP1 ISZERO PUSH2 0x10 JUMPI PUSH1 0x0 DUP1 REVERT JUMPDEST POP PUSH1 0x4 CALLDATASIZE LT PUSH2 0x2B JUMPI PUSH1 0x0 CALLDATALOAD PUSH1 0xE0 SHR DUP1 PUSH4 0x2B57298B EQ PUSH2 0x30 JUMPI JUMPDEST PUSH1 0x0 DUP1 REVERT JUMPDEST PUSH2 0x4A PUSH1 0x4 DUP1 CALLDATASIZE SUB DUP2 ADD SWAP1 PUSH2 0x45 SWAP2 SWAP1 PUSH2 0x329 JUMP JUMPDEST PUSH2 0x60 JUMP JUMPDEST PUSH1 0x40 MLOAD PUSH2 0x57 SWAP2 SWAP1 PUSH2 0x365 JUMP JUMPDEST PUSH1 0x40 MLOAD DUP1 SWAP2 SUB SWAP1 RETURN JUMPDEST PUSH1 0x0 DUP1 PUSH1 0x0 DUP1 PUSH1 0x0 PUSH3 0x15180 SWAP1 POP PUSH1 0x0 DUP2 DUP8 PUSH2 0x7C SWAP2 SWAP1 PUSH2 0x3DE JUMP JUMPDEST SWAP1 POP PUSH1 0x0 PUSH2 0x16D DUP3 PUSH2 0x8E SWAP2 SWAP1 PUSH2 0x3DE JUMP JUMPDEST SWAP1 POP DUP1 PUSH2 0x7B2 PUSH2 0x9E SWAP2 SWAP1 PUSH2 0x40F JUMP JUMPDEST SWAP6 POP PUSH1 0x0 PUSH2 0x16D DUP3 PUSH2 0xB0 SWAP2 SWAP1 PUSH2 0x443 JUMP JUMPDEST DUP4 PUSH2 0xBB SWAP2 SWAP1 PUSH2 0x485 JUMP JUMPDEST SWAP1 POP PUSH1 0x0 PUSH2 0x7B2 SWAP1 POP JUMPDEST DUP8 DUP2 LT ISZERO PUSH2 0x136 JUMPI PUSH1 0x0 PUSH1 0x4 DUP3 PUSH2 0xDC SWAP2 SWAP1 PUSH2 0x4B9 JUMP JUMPDEST EQ DUP1 ISZERO PUSH2 0x10E JUMPI POP PUSH1 0x0 PUSH1 0x64 DUP3 PUSH2 0xF3 SWAP2 SWAP1 PUSH2 0x4B9 JUMP JUMPDEST EQ ISZERO DUP1 PUSH2 0x10D JUMPI POP PUSH1 0x0 PUSH2 0x190 DUP3 PUSH2 0x10B SWAP2 SWAP1 PUSH2 0x4B9 JUMP JUMPDEST EQ JUMPDEST JUMPDEST ISZERO PUSH2 0x123 JUMPI PUSH1 0x1 DUP3 PUSH2 0x120 SWAP2 SWAP1 PUSH2 0x485 JUMP JUMPDEST SWAP2 POP JUMPDEST DUP1 DUP1 PUSH2 0x12E SWAP1 PUSH2 0x4EA JUMP JUMPDEST SWAP2 POP POP PUSH2 0xC5 JUMP JUMPDEST POP PUSH1 0x3B DUP2 LT PUSH2 0x196 JUMPI PUSH1 0x0 PUSH1 0x4 DUP9 PUSH2 0x14E SWAP2 SWAP1 PUSH2 0x4B9 JUMP JUMPDEST EQ DUP1 ISZERO PUSH2 0x180 JUMPI POP PUSH1 0x0 PUSH1 0x64 DUP9 PUSH2 0x165 SWAP2 SWAP1 PUSH2 0x4B9 JUMP JUMPDEST EQ ISZERO DUP1 PUSH2 0x17F JUMPI POP PUSH1 0x0 PUSH2 0x190 DUP9 PUSH2 0x17D SWAP2 SWAP1 PUSH2 0x4B9 JUMP JUMPDEST EQ JUMPDEST JUMPDEST ISZERO PUSH2 0x195 JUMPI PUSH1 0x1 DUP2 PUSH2 0x192 SWAP2 SWAP1 PUSH2 0x485 JUMP JUMPDEST SWAP1 POP JUMPDEST JUMPDEST PUSH1 0x0 PUSH1 0x40 MLOAD DUP1 PUSH2 0x180 ADD PUSH1 0x40 MSTORE DUP1 PUSH1 0x1F PUSH1 0xFF AND DUP2 MSTORE PUSH1 0x20 ADD PUSH1 0x1C PUSH1 0xFF AND DUP2 MSTORE PUSH1 0x20 ADD PUSH1 0x1F PUSH1 0xFF AND DUP2 MSTORE PUSH1 0x20 ADD PUSH1 0x1E PUSH1 0xFF AND DUP2 MSTORE PUSH1 0x20 ADD PUSH1 0x1F PUSH1 0xFF AND DUP2 MSTORE PUSH1 0x20 ADD PUSH1 0x1E PUSH1 0xFF AND DUP2 MSTORE PUSH1 0x20 ADD PUSH1 0x1F PUSH1 0xFF AND DUP2 MSTORE PUSH1 0x20 ADD PUSH1 0x1F PUSH1 0xFF AND DUP2 MSTORE PUSH1 0x20 ADD PUSH1 0x1E PUSH1 0xFF AND DUP2 MSTORE PUSH1 0x20 ADD PUSH1 0x1F PUSH1 0xFF AND DUP2 MSTORE PUSH1 0x20 ADD PUSH1 0x1E PUSH1 0xFF AND DUP2 MSTORE PUSH1 0x20 ADD PUSH1 0x1F PUSH1 0xFF AND DUP2 MSTORE POP SWAP1 POP PUSH1 0x0 JUMPDEST PUSH1 0xC DUP2 LT ISZERO PUSH2 0x2A8 JUMPI DUP2 DUP2 PUSH1 0xC DUP2 LT PUSH2 0x23B JUMPI PUSH2 0x23A PUSH2 0x532 JUMP JUMPDEST JUMPDEST PUSH1 0x20 MUL ADD MLOAD PUSH1 0xFF AND DUP4 LT ISZERO PUSH2 0x26D JUMPI PUSH1 0x1 DUP2 PUSH2 0x257 SWAP2 SWAP1 PUSH2 0x40F JUMP JUMPDEST SWAP8 POP PUSH1 0x1 DUP4 PUSH2 0x266 SWAP2 SWAP1 PUSH2 0x40F JUMP JUMPDEST SWAP7 POP PUSH2 0x2A8 JUMP JUMPDEST DUP2 DUP2 PUSH1 0xC DUP2 LT PUSH2 0x280 JUMPI PUSH2 0x27F PUSH2 0x532 JUMP JUMPDEST JUMPDEST PUSH1 0x20 MUL ADD MLOAD PUSH1 0xFF AND DUP4 PUSH2 0x293 SWAP2 SWAP1 PUSH2 0x485 JUMP JUMPDEST SWAP3 POP DUP1 DUP1 PUSH2 0x2A0 SWAP1 PUSH2 0x4EA JUMP JUMPDEST SWAP2 POP POP PUSH2 0x21F JUMP JUMPDEST POP PUSH2 0x2710 DUP9 PUSH2 0x2B7 SWAP2 SWAP1 PUSH2 0x443 JUMP JUMPDEST SWAP9 POP PUSH1 0x64 DUP8 PUSH2 0x2C6 SWAP2 SWAP1 PUSH2 0x443 JUMP JUMPDEST DUP10 PUSH2 0x2D1 SWAP2 SWAP1 PUSH2 0x40F JUMP JUMPDEST SWAP9 POP DUP6 DUP10 PUSH2 0x2DF SWAP2 SWAP1 PUSH2 0x40F JUMP JUMPDEST SWAP9 POP POP POP POP POP POP POP POP POP SWAP2 SWAP1 POP JUMP JUMPDEST PUSH1 0x0 DUP1 REVERT JUMPDEST PUSH1 0x0 DUP2 SWAP1 POP SWAP2 SWAP1 POP JUMP JUMPDEST PUSH2 0x306 DUP2 PUSH2 0x2F3 JUMP JUMPDEST DUP2 EQ PUSH2 0x311 JUMPI PUSH1 0x0 DUP1 REVERT JUMPDEST POP JUMP JUMPDEST PUSH1 0x0 DUP2 CALLDATALOAD SWAP1 POP PUSH2 0x323 DUP2 PUSH2 0x2FD JUMP JUMPDEST SWAP3 SWAP2 POP POP JUMP JUMPDEST PUSH1 0x0 PUSH1 0x20 DUP3 DUP5 SUB SLT ISZERO PUSH2 0x33F JUMPI PUSH2 0x33E PUSH2 0x2EE JUMP JUMPDEST JUMPDEST PUSH1 0x0 PUSH2 0x34D DUP5 DUP3 DUP6 ADD PUSH2 0x314 JUMP JUMPDEST SWAP2 POP POP SWAP3 SWAP2 POP POP JUMP JUMPDEST PUSH2 0x35F DUP2 PUSH2 0x2F3 JUMP JUMPDEST DUP3 MSTORE POP POP JUMP JUMPDEST PUSH1 0x0 PUSH1 0x20 DUP3 ADD SWAP1 POP PUSH2 0x37A PUSH1 0x0 DUP4 ADD DUP5 PUSH2 0x356 JUMP JUMPDEST SWAP3 SWAP2 POP POP JUMP JUMPDEST PUSH32 0x4E487B7100000000000000000000000000000000000000000000000000000000 PUSH1 0x0 MSTORE PUSH1 0x12 PUSH1 0x4 MSTORE PUSH1 0x24 PUSH1 0x0 REVERT JUMPDEST PUSH32 0x4E487B7100000000000000000000000000000000000000000000000000000000 PUSH1 0x0 MSTORE PUSH1 0x11 PUSH1 0x4 MSTORE PUSH1 0x24 PUSH1 0x0 REVERT JUMPDEST PUSH1 0x0 PUSH2 0x3E9 DUP3 PUSH2 0x2F3 JUMP JUMPDEST SWAP2 POP PUSH2 0x3F4 DUP4 PUSH2 0x2F3 JUMP JUMPDEST SWAP3 POP DUP3 PUSH2 0x404 JUMPI PUSH2 0x403 PUSH2 0x380 JUMP JUMPDEST JUMPDEST DUP3 DUP3 DIV SWAP1 POP SWAP3 SWAP2 POP POP JUMP JUMPDEST PUSH1 0x0 PUSH2 0x41A DUP3 PUSH2 0x2F3 JUMP JUMPDEST SWAP2 POP PUSH2 0x425 DUP4 PUSH2 0x2F3 JUMP JUMPDEST SWAP3 POP DUP3 DUP3 ADD SWAP1 POP DUP1 DUP3 GT ISZERO PUSH2 0x43D JUMPI PUSH2 0x43C PUSH2 0x3AF JUMP JUMPDEST JUMPDEST SWAP3 SWAP2 POP POP JUMP JUMPDEST PUSH1 0x0 PUSH2 0x44E DUP3 PUSH2 0x2F3 JUMP JUMPDEST SWAP2 POP PUSH2 0x459 DUP4 PUSH2 0x2F3 JUMP JUMPDEST SWAP3 POP DUP3 DUP3 MUL PUSH2 0x467 DUP2 PUSH2 0x2F3 JUMP JUMPDEST SWAP2 POP DUP3 DUP3 DIV DUP5 EQ DUP4 ISZERO OR PUSH2 0x47E JUMPI PUSH2 0x47D PUSH2 0x3AF JUMP JUMPDEST JUMPDEST POP SWAP3 SWAP2 POP POP JUMP JUMPDEST PUSH1 0x0 PUSH2 0x490 DUP3 PUSH2 0x2F3 JUMP JUMPDEST SWAP2 POP PUSH2 0x49B DUP4 PUSH2 0x2F3 JUMP JUMPDEST SWAP3 POP DUP3 DUP3 SUB SWAP1 POP DUP2 DUP2 GT ISZERO PUSH2 0x4B3 JUMPI PUSH2 0x4B2 PUSH2 0x3AF JUMP JUMPDEST JUMPDEST SWAP3 SWAP2 POP POP JUMP JUMPDEST PUSH1 0x0 PUSH2 0x4C4 DUP3 PUSH2 0x2F3 JUMP JUMPDEST SWAP2 POP PUSH2 0x4CF DUP4 PUSH2 0x2F3 JUMP JUMPDEST SWAP3 POP DUP3 PUSH2 0x4DF JUMPI PUSH2 0x4DE PUSH2 0x380 JUMP JUMPDEST JUMPDEST DUP3 DUP3 MOD SWAP1 POP SWAP3 SWAP2 POP POP JUMP JUMPDEST PUSH1 0x0 PUSH2 0x4F5 DUP3 PUSH2 0x2F3 JUMP JUMPDEST SWAP2 POP PUSH32 0xFFFFFFFFFFFFFFFFFFFFFFFFFFFFFFFFFFFFFFFFFFFFFFFFFFFFFFFFFFFFFFFF DUP3 SUB PUSH2 0x527 JUMPI PUSH2 0x526 PUSH2 0x3AF JUMP JUMPDEST JUMPDEST PUSH1 0x1 DUP3 ADD SWAP1 POP SWAP2 SWAP1 POP JUMP JUMPDEST PUSH32 0x4E487B7100000000000000000000000000000000000000000000000000000000 PUSH1 0x0 MSTORE PUSH1 0x32 PUSH1 0x4 MSTORE PUSH1 0x24 PUSH1 0x0 REVERT INVALID LOG2 PUSH5 0x6970667358 0x22 SLT KECCAK256 PUSH5 0xE1B253C6B0 DUP9 LOG4 PUSH28 0x24029649ED97EB2816FF9FC325B5B8ADB263B91544E33464736F6C63 NUMBER STOP ADDMOD GT STOP CALLER "},"methodIdentifiers":{"getDate(uint256)":"2b57298b"}}}}}