{
  "_format": "hh-sol-artifact-1",
  "contractName": "UtilContract",
  "sourceName": "contracts/UtilContract.sol",
  "abi": [
    {
      "inputs": [
        {
          "internalType": "uint256",
          "name": "timestamp",
          "type": "uint256"
        }
      ],
      "name": "getDate",
      "outputs": [
        {
          "internalType": "uint256",
          "name": "yearMonthDay",
          "type": "uint256"
        }
      ],
      "stateMutability": "pure",
      "type": "function"
    }
  ],
  "bytecode": "0x608060405234801561001057600080fd5b50610597806100206000396000f3fe608060405234801561001057600080fd5b506004361061002b5760003560e01c80632b57298b14610030575b600080fd5b61004a60048036038101906100459190610329565b610060565b6040516100579190610365565b60405180910390f35b60008060008060006201518090506000818761007c91906103de565b9050600061016d8261008e91906103de565b9050806107b261009e919061040f565b9550600061016d826100b09190610443565b836100bb9190610485565b905060006107b290505b878110156101365760006004826100dc91906104b9565b14801561010e575060006064826100f391906104b9565b14158061010d575060006101908261010b91906104b9565b145b5b15610123576001826101209190610485565b91505b808061012e906104ea565b9150506100c5565b50603b811061019657600060048861014e91906104b9565b1480156101805750600060648861016591906104b9565b14158061017f575060006101908861017d91906104b9565b145b5b15610195576001816101929190610485565b90505b5b6000604051806101800160405280601f60ff168152602001601c60ff168152602001601f60ff168152602001601e60ff168152602001601f60ff168152602001601e60ff168152602001601f60ff168152602001601f60ff168152602001601e60ff168152602001601f60ff168152602001601e60ff168152602001601f60ff16815250905060005b600c8110156102a8578181600c811061023b5761023a610532565b5b602002015160ff1683101561026d57600181610257919061040f565b9750600183610266919061040f565b96506102a8565b8181600c81106102805761027f610532565b5b602002015160ff16836102939190610485565b925080806102a0906104ea565b91505061021f565b50612710886102b79190610443565b98506064876102c69190610443565b896102d1919061040f565b985085896102df919061040f565b98505050505050505050919050565b600080fd5b6000819050919050565b610306816102f3565b811461031157600080fd5b50565b600081359050610323816102fd565b92915050565b60006020828403121561033f5761033e6102ee565b5b600061034d84828501610314565b91505092915050565b61035f816102f3565b82525050565b600060208201905061037a6000830184610356565b92915050565b7f4e487b7100000000000000000000000000000000000000000000000000000000600052601260045260246000fd5b7f4e487b7100000000000000000000000000000000000000000000000000000000600052601160045260246000fd5b60006103e9826102f3565b91506103f4836102f3565b92508261040457610403610380565b5b828204905092915050565b600061041a826102f3565b9150610425836102f3565b925082820190508082111561043d5761043c6103af565b5b92915050565b600061044e826102f3565b9150610459836102f3565b9250828202610467816102f3565b9150828204841483151761047e5761047d6103af565b5b5092915050565b6000610490826102f3565b915061049b836102f3565b92508282039050818111156104b3576104b26103af565b5b92915050565b60006104c4826102f3565b91506104cf836102f3565b9250826104df576104de610380565b5b828206905092915050565b60006104f5826102f3565b91507fffffffffffffffffffffffffffffffffffffffffffffffffffffffffffffffff8203610527576105266103af565b5b600182019050919050565b7f4e487b7100000000000000000000000000000000000000000000000000000000600052603260045260246000fdfea264697066735822122064e1b253c6b088a47b24029649ed97eb2816ff9fc325b5b8adb263b91544e33464736f6c63430008110033",
  "linkReferences": {},
  "deployedLinkReferences": {}
}