{
  "_format": "hh-sol-artifact-1",
  "contractName": "PontoBlock",
  "sourceName": "contracts/PontoBlock.sol",
  "abi": [
    {
      "inputs": [
        {
          "internalType": "address",
          "name": "_emp",
          "type": "address"
        },
        {
          "internalType": "address",
          "name": "_util",
          "type": "address"
        }
      ],
      "stateMutability": "nonpayable",
      "type": "constructor"
    },
    {
      "inputs": [],
      "name": "breakEndTime",
      "outputs": [],
      "stateMutability": "nonpayable",
      "type": "function"
    },
    {
      "inputs": [],
      "name": "breakStartTime",
      "outputs": [],
      "stateMutability": "nonpayable",
      "type": "function"
    },
    {
      "inputs": [],
      "name": "endWork",
      "outputs": [],
      "stateMutability": "nonpayable",
      "type": "function"
    },
    {
      "inputs": [],
      "name": "getCreationDateContract",
      "outputs": [
        {
          "internalType": "uint256",
          "name": "",
          "type": "uint256"
        }
      ],
      "stateMutability": "view",
      "type": "function"
    },
    {
      "inputs": [
        {
          "internalType": "address",
          "name": "_address",
          "type": "address"
        },
        {
          "internalType": "uint256",
          "name": "_date",
          "type": "uint256"
        }
      ],
      "name": "getEmployeeRecords",
      "outputs": [
        {
          "components": [
            {
              "internalType": "uint256",
              "name": "startWork",
              "type": "uint256"
            },
            {
              "internalType": "uint256",
              "name": "endWork",
              "type": "uint256"
            },
            {
              "internalType": "uint256",
              "name": "breakStartTime",
              "type": "uint256"
            },
            {
              "internalType": "uint256",
              "name": "breakEndTime",
              "type": "uint256"
            }
          ],
          "internalType": "struct PontoBlock.EmployeeRecord",
          "name": "",
          "type": "tuple"
        }
      ],
      "stateMutability": "view",
      "type": "function"
    },
    {
      "inputs": [],
      "name": "startWork",
      "outputs": [],
      "stateMutability": "nonpayable",
      "type": "function"
    }
  ],
  "bytecode": "0x60806040523480156200001157600080fd5b506040516200229b3803806200229b833981810160405281019062000037919062000212565b81600160006101000a81548173ffffffffffffffffffffffffffffffffffffffff021916908373ffffffffffffffffffffffffffffffffffffffff16021790555080600260006101000a81548173ffffffffffffffffffffffffffffffffffffffff021916908373ffffffffffffffffffffffffffffffffffffffff160217905550336000806101000a81548173ffffffffffffffffffffffffffffffffffffffff021916908373ffffffffffffffffffffffffffffffffffffffff160217905550600260009054906101000a900473ffffffffffffffffffffffffffffffffffffffff1673ffffffffffffffffffffffffffffffffffffffff16632b57298b426040518263ffffffff1660e01b815260040162000156919062000274565b602060405180830381865afa15801562000174573d6000803e3d6000fd5b505050506040513d601f19601f820116820180604052508101906200019a9190620002c2565b6003819055505050620002f4565b600080fd5b600073ffffffffffffffffffffffffffffffffffffffff82169050919050565b6000620001da82620001ad565b9050919050565b620001ec81620001cd565b8114620001f857600080fd5b50565b6000815190506200020c81620001e1565b92915050565b600080604083850312156200022c576200022b620001a8565b5b60006200023c85828601620001fb565b92505060206200024f85828601620001fb565b9150509250929050565b6000819050919050565b6200026e8162000259565b82525050565b60006020820190506200028b600083018462000263565b92915050565b6200029c8162000259565b8114620002a857600080fd5b50565b600081519050620002bc8162000291565b92915050565b600060208284031215620002db57620002da620001a8565b5b6000620002eb84828501620002ab565b91505092915050565b611f9780620003046000396000f3fe608060405234801561001057600080fd5b50600436106100625760003560e01c806301034979146100675780630dfa416a146100715780634f82ff1d146100a157806378147c05146100ab578063c8d06eb1146100c9578063ddaf8c18146100d3575b600080fd5b61006f6100dd565b005b61008b600480360381019061008691906119bf565b6103de565b6040516100989190611a63565b60405180910390f35b6100a961054c565b005b6100b3610aaf565b6040516100c09190611a8d565b60405180910390f35b6100d1610ab9565b005b6100db6114cc565b005b600160009054906101000a900473ffffffffffffffffffffffffffffffffffffffff1673ffffffffffffffffffffffffffffffffffffffff1663fb4cf425336040518263ffffffff1660e01b81526004016101389190611ab7565b602060405180830381865afa158015610155573d6000803e3d6000fd5b505050506040513d601f19601f820116820180604052508101906101799190611b0a565b6101b8576040517f08c379a00000000000000000000000000000000000000000000000000000000081526004016101af90611b94565b60405180910390fd5b6000600460003373ffffffffffffffffffffffffffffffffffffffff1673ffffffffffffffffffffffffffffffffffffffff1681526020019081526020016000206000600260009054906101000a900473ffffffffffffffffffffffffffffffffffffffff1673ffffffffffffffffffffffffffffffffffffffff16632b57298b426040518263ffffffff1660e01b81526004016102569190611a8d565b602060405180830381865afa158015610273573d6000803e3d6000fd5b505050506040513d601f19601f820116820180604052508101906102979190611bc9565b815260200190815260200160002060000154146102e9576040517f08c379a00000000000000000000000000000000000000000000000000000000081526004016102e090611c68565b60405180910390fd5b42600460003373ffffffffffffffffffffffffffffffffffffffff1673ffffffffffffffffffffffffffffffffffffffff1681526020019081526020016000206000600260009054906101000a900473ffffffffffffffffffffffffffffffffffffffff1673ffffffffffffffffffffffffffffffffffffffff16632b57298b426040518263ffffffff1660e01b81526004016103869190611a8d565b602060405180830381865afa1580156103a3573d6000803e3d6000fd5b505050506040513d601f19601f820116820180604052508101906103c79190611bc9565b815260200190815260200160002060000181905550565b6103e66118fe565b600160009054906101000a900473ffffffffffffffffffffffffffffffffffffffff1673ffffffffffffffffffffffffffffffffffffffff1663fb4cf425846040518263ffffffff1660e01b81526004016104419190611ab7565b602060405180830381865afa15801561045e573d6000803e3d6000fd5b505050506040513d601f19601f820116820180604052508101906104829190611b0a565b6104c1576040517f08c379a00000000000000000000000000000000000000000000000000000000081526004016104b890611b94565b60405180910390fd5b600460008473ffffffffffffffffffffffffffffffffffffffff1673ffffffffffffffffffffffffffffffffffffffff1681526020019081526020016000206000838152602001908152602001600020604051806080016040529081600082015481526020016001820154815260200160028201548152602001600382015481525050905092915050565b600160009054906101000a900473ffffffffffffffffffffffffffffffffffffffff1673ffffffffffffffffffffffffffffffffffffffff1663fb4cf425336040518263ffffffff1660e01b81526004016105a79190611ab7565b602060405180830381865afa1580156105c4573d6000803e3d6000fd5b505050506040513d601f19601f820116820180604052508101906105e89190611b0a565b610627576040517f08c379a000000000000000000000000000000000000000000000000000000000815260040161061e90611b94565b60405180910390fd5b6000600460003373ffffffffffffffffffffffffffffffffffffffff1673ffffffffffffffffffffffffffffffffffffffff1681526020019081526020016000206000600260009054906101000a900473ffffffffffffffffffffffffffffffffffffffff1673ffffffffffffffffffffffffffffffffffffffff16632b57298b426040518263ffffffff1660e01b81526004016106c59190611a8d565b602060405180830381865afa1580156106e2573d6000803e3d6000fd5b505050506040513d601f19601f820116820180604052508101906107069190611bc9565b81526020019081526020016000206002015414610758576040517f08c379a000000000000000000000000000000000000000000000000000000000815260040161074f90611cfa565b60405180910390fd5b6000600460003373ffffffffffffffffffffffffffffffffffffffff1673ffffffffffffffffffffffffffffffffffffffff1681526020019081526020016000206000600260009054906101000a900473ffffffffffffffffffffffffffffffffffffffff1673ffffffffffffffffffffffffffffffffffffffff16632b57298b426040518263ffffffff1660e01b81526004016107f69190611a8d565b602060405180830381865afa158015610813573d6000803e3d6000fd5b505050506040513d601f19601f820116820180604052508101906108379190611bc9565b81526020019081526020016000206000015403610889576040517f08c379a000000000000000000000000000000000000000000000000000000000815260040161088090611d66565b60405180910390fd5b6000600460003373ffffffffffffffffffffffffffffffffffffffff1673ffffffffffffffffffffffffffffffffffffffff1681526020019081526020016000206000600260009054906101000a900473ffffffffffffffffffffffffffffffffffffffff1673ffffffffffffffffffffffffffffffffffffffff16632b57298b426040518263ffffffff1660e01b81526004016109279190611a8d565b602060405180830381865afa158015610944573d6000803e3d6000fd5b505050506040513d601f19601f820116820180604052508101906109689190611bc9565b815260200190815260200160002060010154146109ba576040517f08c379a00000000000000000000000000000000000000000000000000000000081526004016109b190611dd2565b60405180910390fd5b42600460003373ffffffffffffffffffffffffffffffffffffffff1673ffffffffffffffffffffffffffffffffffffffff1681526020019081526020016000206000600260009054906101000a900473ffffffffffffffffffffffffffffffffffffffff1673ffffffffffffffffffffffffffffffffffffffff16632b57298b426040518263ffffffff1660e01b8152600401610a579190611a8d565b602060405180830381865afa158015610a74573d6000803e3d6000fd5b505050506040513d601f19601f82011682018060405250810190610a989190611bc9565b815260200190815260200160002060020181905550565b6000600354905090565b600160009054906101000a900473ffffffffffffffffffffffffffffffffffffffff1673ffffffffffffffffffffffffffffffffffffffff1663fb4cf425336040518263ffffffff1660e01b8152600401610b149190611ab7565b602060405180830381865afa158015610b31573d6000803e3d6000fd5b505050506040513d601f19601f82011682018060405250810190610b559190611b0a565b610b94576040517f08c379a0000000000000000000000000000000000000000000000000000000008152600401610b8b90611b94565b60405180910390fd5b6000600460003373ffffffffffffffffffffffffffffffffffffffff1673ffffffffffffffffffffffffffffffffffffffff1681526020019081526020016000206000600260009054906101000a900473ffffffffffffffffffffffffffffffffffffffff1673ffffffffffffffffffffffffffffffffffffffff16632b57298b426040518263ffffffff1660e01b8152600401610c329190611a8d565b602060405180830381865afa158015610c4f573d6000803e3d6000fd5b505050506040513d601f19601f82011682018060405250810190610c739190611bc9565b81526020019081526020016000206001015414610cc5576040517f08c379a0000000000000000000000000000000000000000000000000000000008152600401610cbc90611dd2565b60405180910390fd5b6000600460003373ffffffffffffffffffffffffffffffffffffffff1673ffffffffffffffffffffffffffffffffffffffff1681526020019081526020016000206000600260009054906101000a900473ffffffffffffffffffffffffffffffffffffffff1673ffffffffffffffffffffffffffffffffffffffff16632b57298b426040518263ffffffff1660e01b8152600401610d639190611a8d565b602060405180830381865afa158015610d80573d6000803e3d6000fd5b505050506040513d601f19601f82011682018060405250810190610da49190611bc9565b81526020019081526020016000206000015403610df6576040517f08c379a0000000000000000000000000000000000000000000000000000000008152600401610ded90611d66565b60405180910390fd5b6000610e1090506000600460003373ffffffffffffffffffffffffffffffffffffffff1673ffffffffffffffffffffffffffffffffffffffff1681526020019081526020016000206000600260009054906101000a900473ffffffffffffffffffffffffffffffffffffffff1673ffffffffffffffffffffffffffffffffffffffff16632b57298b426040518263ffffffff1660e01b8152600401610e9b9190611a8d565b602060405180830381865afa158015610eb8573d6000803e3d6000fd5b505050506040513d601f19601f82011682018060405250810190610edc9190611bc9565b81526020019081526020016000206002015414158015610fea57506000600460003373ffffffffffffffffffffffffffffffffffffffff1673ffffffffffffffffffffffffffffffffffffffff1681526020019081526020016000206000600260009054906101000a900473ffffffffffffffffffffffffffffffffffffffff1673ffffffffffffffffffffffffffffffffffffffff16632b57298b426040518263ffffffff1660e01b8152600401610f959190611a8d565b602060405180830381865afa158015610fb2573d6000803e3d6000fd5b505050506040513d601f19601f82011682018060405250810190610fd69190611bc9565b815260200190815260200160002060030154145b156113d65780600460003373ffffffffffffffffffffffffffffffffffffffff1673ffffffffffffffffffffffffffffffffffffffff1681526020019081526020016000206000600260009054906101000a900473ffffffffffffffffffffffffffffffffffffffff1673ffffffffffffffffffffffffffffffffffffffff16632b57298b426040518263ffffffff1660e01b815260040161108c9190611a8d565b602060405180830381865afa1580156110a9573d6000803e3d6000fd5b505050506040513d601f19601f820116820180604052508101906110cd9190611bc9565b815260200190815260200160002060020154426110ea9190611e21565b11156112e15780600460003373ffffffffffffffffffffffffffffffffffffffff1673ffffffffffffffffffffffffffffffffffffffff1681526020019081526020016000206000600260009054906101000a900473ffffffffffffffffffffffffffffffffffffffff1673ffffffffffffffffffffffffffffffffffffffff16632b57298b426040518263ffffffff1660e01b815260040161118d9190611a8d565b602060405180830381865afa1580156111aa573d6000803e3d6000fd5b505050506040513d601f19601f820116820180604052508101906111ce9190611bc9565b8152602001908152602001600020600201546111ea9190611e55565b600460003373ffffffffffffffffffffffffffffffffffffffff1673ffffffffffffffffffffffffffffffffffffffff1681526020019081526020016000206000600260009054906101000a900473ffffffffffffffffffffffffffffffffffffffff1673ffffffffffffffffffffffffffffffffffffffff16632b57298b426040518263ffffffff1660e01b81526004016112869190611a8d565b602060405180830381865afa1580156112a3573d6000803e3d6000fd5b505050506040513d601f19601f820116820180604052508101906112c79190611bc9565b8152602001908152602001600020600301819055506113d5565b42600460003373ffffffffffffffffffffffffffffffffffffffff1673ffffffffffffffffffffffffffffffffffffffff1681526020019081526020016000206000600260009054906101000a900473ffffffffffffffffffffffffffffffffffffffff1673ffffffffffffffffffffffffffffffffffffffff16632b57298b426040518263ffffffff1660e01b815260040161137e9190611a8d565b602060405180830381865afa15801561139b573d6000803e3d6000fd5b505050506040513d601f19601f820116820180604052508101906113bf9190611bc9565b8152602001908152602001600020600301819055505b5b42600460003373ffffffffffffffffffffffffffffffffffffffff1673ffffffffffffffffffffffffffffffffffffffff1681526020019081526020016000206000600260009054906101000a900473ffffffffffffffffffffffffffffffffffffffff1673ffffffffffffffffffffffffffffffffffffffff16632b57298b426040518263ffffffff1660e01b81526004016114739190611a8d565b602060405180830381865afa158015611490573d6000803e3d6000fd5b505050506040513d601f19601f820116820180604052508101906114b49190611bc9565b81526020019081526020016000206001018190555050565b600160009054906101000a900473ffffffffffffffffffffffffffffffffffffffff1673ffffffffffffffffffffffffffffffffffffffff1663fb4cf425336040518263ffffffff1660e01b81526004016115279190611ab7565b602060405180830381865afa158015611544573d6000803e3d6000fd5b505050506040513d601f19601f820116820180604052508101906115689190611b0a565b6115a7576040517f08c379a000000000000000000000000000000000000000000000000000000000815260040161159e90611b94565b60405180910390fd5b6000600460003373ffffffffffffffffffffffffffffffffffffffff1673ffffffffffffffffffffffffffffffffffffffff1681526020019081526020016000206000600260009054906101000a900473ffffffffffffffffffffffffffffffffffffffff1673ffffffffffffffffffffffffffffffffffffffff16632b57298b426040518263ffffffff1660e01b81526004016116459190611a8d565b602060405180830381865afa158015611662573d6000803e3d6000fd5b505050506040513d601f19601f820116820180604052508101906116869190611bc9565b815260200190815260200160002060030154146116d8576040517f08c379a00000000000000000000000000000000000000000000000000000000081526004016116cf90611ed5565b60405180910390fd5b6000600460003373ffffffffffffffffffffffffffffffffffffffff1673ffffffffffffffffffffffffffffffffffffffff1681526020019081526020016000206000600260009054906101000a900473ffffffffffffffffffffffffffffffffffffffff1673ffffffffffffffffffffffffffffffffffffffff16632b57298b426040518263ffffffff1660e01b81526004016117769190611a8d565b602060405180830381865afa158015611793573d6000803e3d6000fd5b505050506040513d601f19601f820116820180604052508101906117b79190611bc9565b81526020019081526020016000206002015403611809576040517f08c379a000000000000000000000000000000000000000000000000000000000815260040161180090611f41565b60405180910390fd5b42600460003373ffffffffffffffffffffffffffffffffffffffff1673ffffffffffffffffffffffffffffffffffffffff1681526020019081526020016000206000600260009054906101000a900473ffffffffffffffffffffffffffffffffffffffff1673ffffffffffffffffffffffffffffffffffffffff16632b57298b426040518263ffffffff1660e01b81526004016118a69190611a8d565b602060405180830381865afa1580156118c3573d6000803e3d6000fd5b505050506040513d601f19601f820116820180604052508101906118e79190611bc9565b815260200190815260200160002060030181905550565b6040518060800160405280600081526020016000815260200160008152602001600081525090565b600080fd5b600073ffffffffffffffffffffffffffffffffffffffff82169050919050565b60006119568261192b565b9050919050565b6119668161194b565b811461197157600080fd5b50565b6000813590506119838161195d565b92915050565b6000819050919050565b61199c81611989565b81146119a757600080fd5b50565b6000813590506119b981611993565b92915050565b600080604083850312156119d6576119d5611926565b5b60006119e485828601611974565b92505060206119f5858286016119aa565b9150509250929050565b611a0881611989565b82525050565b608082016000820151611a2460008501826119ff565b506020820151611a3760208501826119ff565b506040820151611a4a60408501826119ff565b506060820151611a5d60608501826119ff565b50505050565b6000608082019050611a786000830184611a0e565b92915050565b611a8781611989565b82525050565b6000602082019050611aa26000830184611a7e565b92915050565b611ab18161194b565b82525050565b6000602082019050611acc6000830184611aa8565b92915050565b60008115159050919050565b611ae781611ad2565b8114611af257600080fd5b50565b600081519050611b0481611ade565b92915050565b600060208284031215611b2057611b1f611926565b5b6000611b2e84828501611af5565b91505092915050565b600082825260208201905092915050565b7f456d706c6f796565206e6f7420726567697374657265642e0000000000000000600082015250565b6000611b7e601883611b37565b9150611b8982611b48565b602082019050919050565b60006020820190508181036000830152611bad81611b71565b9050919050565b600081519050611bc381611993565b92915050565b600060208284031215611bdf57611bde611926565b5b6000611bed84828501611bb4565b91505092915050565b7f5374617274206f6620776f726b20616c7265616479207265676973746572656460008201527f2e00000000000000000000000000000000000000000000000000000000000000602082015250565b6000611c52602183611b37565b9150611c5d82611bf6565b604082019050919050565b60006020820190508181036000830152611c8181611c45565b9050919050565b7f5374617274206f6620627265616b20616c72656164792072656769737465726560008201527f642e000000000000000000000000000000000000000000000000000000000000602082015250565b6000611ce4602283611b37565b9150611cef82611c88565b604082019050919050565b60006020820190508181036000830152611d1381611cd7565b9050919050565b7f5374617274206f6620776f726b206e6f7420726567697374657265642e000000600082015250565b6000611d50601d83611b37565b9150611d5b82611d1a565b602082019050919050565b60006020820190508181036000830152611d7f81611d43565b9050919050565b7f456e64206f6620776f726b20616c726561647920726567697374657265642e00600082015250565b6000611dbc601f83611b37565b9150611dc782611d86565b602082019050919050565b60006020820190508181036000830152611deb81611daf565b9050919050565b7f4e487b7100000000000000000000000000000000000000000000000000000000600052601160045260246000fd5b6000611e2c82611989565b9150611e3783611989565b9250828203905081811115611e4f57611e4e611df2565b5b92915050565b6000611e6082611989565b9150611e6b83611989565b9250828201905080821115611e8357611e82611df2565b5b92915050565b7f456e64206f6620627265616b20616c726561647920726567697374657265642e600082015250565b6000611ebf602083611b37565b9150611eca82611e89565b602082019050919050565b60006020820190508181036000830152611eee81611eb2565b9050919050565b7f5374617274206f6620627265616b206e6f7420726567697374657265642e0000600082015250565b6000611f2b601e83611b37565b9150611f3682611ef5565b602082019050919050565b60006020820190508181036000830152611f5a81611f1e565b905091905056fea26469706673582212202f712aa7a938b8ca5da35c059d2bc32cbced4b981d3949fd2b54d26856cc431764736f6c63430008110033",
  "linkReferences": {},
  "deployedLinkReferences": {}
}