{
  "_format": "hh-sol-artifact-1",
  "contractName": "PontoBlockReports",
  "sourceName": "contracts/PontoBlockReports.sol",
  "abi": [
    {
      "inputs": [
        {
          "internalType": "address",
          "name": "_emp",
          "type": "address"
        },
        {
          "internalType": "address",
          "name": "_ponto",
          "type": "address"
        },
        {
          "internalType": "address",
          "name": "_util",
          "type": "address"
        }
      ],
      "stateMutability": "nonpayable",
      "type": "constructor"
    },
    {
      "inputs": [
        {
          "internalType": "address",
          "name": "_employee",
          "type": "address"
        },
        {
          "internalType": "uint256",
          "name": "_startDate",
          "type": "uint256"
        },
        {
          "internalType": "uint256",
          "name": "_endDate",
          "type": "uint256"
        }
      ],
      "name": "getWorkTimeFromEmployeeBetweenTwoDates",
      "outputs": [
        {
          "internalType": "uint256[]",
          "name": "_date",
          "type": "uint256[]"
        },
        {
          "internalType": "uint256[]",
          "name": "_startWork",
          "type": "uint256[]"
        },
        {
          "internalType": "uint256[]",
          "name": "_endWork",
          "type": "uint256[]"
        },
        {
          "internalType": "uint256[]",
          "name": "_breakStartTime",
          "type": "uint256[]"
        },
        {
          "internalType": "uint256[]",
          "name": "_breakEndTime",
          "type": "uint256[]"
        }
      ],
      "stateMutability": "view",
      "type": "function"
    },
    {
      "inputs": [
        {
          "internalType": "uint256",
          "name": "_date",
          "type": "uint256"
        }
      ],
      "name": "getWorkTimesForAllEmployeesAtDate",
      "outputs": [
        {
          "internalType": "address[]",
          "name": "_empAddress",
          "type": "address[]"
        },
        {
          "internalType": "uint256[]",
          "name": "_startWork",
          "type": "uint256[]"
        },
        {
          "internalType": "uint256[]",
          "name": "_endWork",
          "type": "uint256[]"
        },
        {
          "internalType": "uint256[]",
          "name": "_breakStartTime",
          "type": "uint256[]"
        },
        {
          "internalType": "uint256[]",
          "name": "_breakEndTime",
          "type": "uint256[]"
        }
      ],
      "stateMutability": "view",
      "type": "function"
    },
    {
      "inputs": [
        {
          "internalType": "uint256",
          "name": "_startDate",
          "type": "uint256"
        },
        {
          "internalType": "uint256",
          "name": "_endDate",
          "type": "uint256"
        }
      ],
      "name": "getWorkTimesForAllEmployeesBetweenTwoDates",
      "outputs": [
        {
          "internalType": "uint256[]",
          "name": "_date",
          "type": "uint256[]"
        },
        {
          "internalType": "address[][]",
          "name": "_empAddress",
          "type": "address[][]"
        },
        {
          "internalType": "uint256[][]",
          "name": "_startWork",
          "type": "uint256[][]"
        },
        {
          "internalType": "uint256[][]",
          "name": "_endWork",
          "type": "uint256[][]"
        },
        {
          "internalType": "uint256[][]",
          "name": "_breakStartTime",
          "type": "uint256[][]"
        },
        {
          "internalType": "uint256[][]",
          "name": "_breakEndTime",
          "type": "uint256[][]"
        }
      ],
      "stateMutability": "view",
      "type": "function"
    },
    {
      "inputs": [
        {
          "internalType": "address",
          "name": "_employee",
          "type": "address"
        },
        {
          "internalType": "uint256",
          "name": "_date",
          "type": "uint256"
        }
      ],
      "name": "getWorkTimesFromEmployeeAtDate",
      "outputs": [
        {
          "internalType": "uint256",
          "name": "_startWork",
          "type": "uint256"
        },
        {
          "internalType": "uint256",
          "name": "_endWork",
          "type": "uint256"
        },
        {
          "internalType": "uint256",
          "name": "_breakStartTime",
          "type": "uint256"
        },
        {
          "internalType": "uint256",
          "name": "_breakEndTime",
          "type": "uint256"
        }
      ],
      "stateMutability": "view",
      "type": "function"
    }
  ],
  "bytecode": "0x60806040523480156200001157600080fd5b50604051620025043803806200250483398181016040528101906200003791906200016c565b826000806101000a81548173ffffffffffffffffffffffffffffffffffffffff021916908373ffffffffffffffffffffffffffffffffffffffff16021790555081600160006101000a81548173ffffffffffffffffffffffffffffffffffffffff021916908373ffffffffffffffffffffffffffffffffffffffff16021790555080600260006101000a81548173ffffffffffffffffffffffffffffffffffffffff021916908373ffffffffffffffffffffffffffffffffffffffff160217905550505050620001c8565b600080fd5b600073ffffffffffffffffffffffffffffffffffffffff82169050919050565b6000620001348262000107565b9050919050565b620001468162000127565b81146200015257600080fd5b50565b60008151905062000166816200013b565b92915050565b60008060006060848603121562000188576200018762000102565b5b6000620001988682870162000155565b9350506020620001ab8682870162000155565b9250506040620001be8682870162000155565b9150509250925092565b61232c80620001d86000396000f3fe608060405234801561001057600080fd5b506004361061004c5760003560e01c8063011e92cd146100515780634188e35914610085578063448e915f146100b8578063dd73d8ed146100ec575b600080fd5b61006b600480360381019061006691906113d6565b610121565b60405161007c9594939291906114e7565b60405180910390f35b61009f600480360381019061009a919061155d565b61079c565b6040516100af94939291906115ac565b60405180910390f35b6100d260048036038101906100cd91906115f1565b610943565b6040516100e39594939291906116dc565b60405180910390f35b61010660048036038101906101019190611752565b610d85565b604051610118969594939291906119f4565b60405180910390f35b60608060608060606001151560008054906101000a900473ffffffffffffffffffffffffffffffffffffffff1673ffffffffffffffffffffffffffffffffffffffff1663fb4cf4258a6040518263ffffffff1660e01b81526004016101869190611a8e565b602060405180830381865afa1580156101a3573d6000803e3d6000fd5b505050506040513d601f19601f820116820180604052508101906101c79190611ae1565b151514610209576040517f08c379a000000000000000000000000000000000000000000000000000000000815260040161020090611b6b565b60405180910390fd5b85871061024b576040517f08c379a000000000000000000000000000000000000000000000000000000000815260040161024290611bfd565b60405180910390fd5b600160009054906101000a900473ffffffffffffffffffffffffffffffffffffffff1673ffffffffffffffffffffffffffffffffffffffff166378147c056040518163ffffffff1660e01b8152600401602060405180830381865afa1580156102b8573d6000803e3d6000fd5b505050506040513d601f19601f820116820180604052508101906102dc9190611c32565b87101561031e576040517f08c379a000000000000000000000000000000000000000000000000000000000815260040161031590611cd1565b60405180910390fd5b600260009054906101000a900473ffffffffffffffffffffffffffffffffffffffff1673ffffffffffffffffffffffffffffffffffffffff16632b57298b426040518263ffffffff1660e01b81526004016103799190611cf1565b602060405180830381865afa158015610396573d6000803e3d6000fd5b505050506040513d601f19601f820116820180604052508101906103ba9190611c32565b8611156103fc576040517f08c379a00000000000000000000000000000000000000000000000000000000081526004016103f390611d7e565b60405180910390fd5b6001878761040a9190611dcd565b6104149190611e01565b67ffffffffffffffff81111561042d5761042c611e35565b5b60405190808252806020026020018201604052801561045b5781602001602082028036833780820191505090505b5094506001878761046c9190611dcd565b6104769190611e01565b67ffffffffffffffff81111561048f5761048e611e35565b5b6040519080825280602002602001820160405280156104bd5781602001602082028036833780820191505090505b509350600187876104ce9190611dcd565b6104d89190611e01565b67ffffffffffffffff8111156104f1576104f0611e35565b5b60405190808252806020026020018201604052801561051f5781602001602082028036833780820191505090505b509250600187876105309190611dcd565b61053a9190611e01565b67ffffffffffffffff81111561055357610552611e35565b5b6040519080825280602002602001820160405280156105815781602001602082028036833780820191505090505b509150600187876105929190611dcd565b61059c9190611e01565b67ffffffffffffffff8111156105b5576105b4611e35565b5b6040519080825280602002602001820160405280156105e35781602001602082028036833780820191505090505b50905060008790505b868111610790576000600160009054906101000a900473ffffffffffffffffffffffffffffffffffffffff1673ffffffffffffffffffffffffffffffffffffffff16630dfa416a8b846040518363ffffffff1660e01b8152600401610652929190611e64565b608060405180830381865afa15801561066f573d6000803e3d6000fd5b505050506040513d601f19601f820116820180604052508101906106939190611f6c565b90508060000151868a846106a79190611dcd565b815181106106b8576106b7611f99565b5b6020026020010181815250508060200151858a846106d69190611dcd565b815181106106e7576106e6611f99565b5b6020026020010181815250508060400151848a846107059190611dcd565b8151811061071657610715611f99565b5b6020026020010181815250508060600151838a846107349190611dcd565b8151811061074557610744611f99565b5b60200260200101818152505081878a8461075f9190611dcd565b815181106107705761076f611f99565b5b60200260200101818152505050808061078890611fc8565b9150506105ec565b50939792965093509350565b60008060008060008054906101000a900473ffffffffffffffffffffffffffffffffffffffff1673ffffffffffffffffffffffffffffffffffffffff1663fb4cf425876040518263ffffffff1660e01b81526004016107fb9190611a8e565b602060405180830381865afa158015610818573d6000803e3d6000fd5b505050506040513d601f19601f8201168201806040525081019061083c9190611ae1565b61087b576040517f08c379a000000000000000000000000000000000000000000000000000000000815260040161087290611b6b565b60405180910390fd5b6000600160009054906101000a900473ffffffffffffffffffffffffffffffffffffffff1673ffffffffffffffffffffffffffffffffffffffff16630dfa416a88886040518363ffffffff1660e01b81526004016108da929190611e64565b608060405180830381865afa1580156108f7573d6000803e3d6000fd5b505050506040513d601f19601f8201168201806040525081019061091b9190611f6c565b9050806000015194508060200151935080604001519250806060015191505092959194509250565b6060806060806060600160009054906101000a900473ffffffffffffffffffffffffffffffffffffffff1673ffffffffffffffffffffffffffffffffffffffff166378147c056040518163ffffffff1660e01b8152600401602060405180830381865afa1580156109b8573d6000803e3d6000fd5b505050506040513d601f19601f820116820180604052508101906109dc9190611c32565b861015610a1e576040517f08c379a0000000000000000000000000000000000000000000000000000000008152600401610a1590611cd1565b60405180910390fd5b60008060009054906101000a900473ffffffffffffffffffffffffffffffffffffffff1673ffffffffffffffffffffffffffffffffffffffff1663e3366fed6040518163ffffffff1660e01b8152600401600060405180830381865afa158015610a8c573d6000803e3d6000fd5b505050506040513d6000823e3d601f19601f82011682018060405250810190610ab591906122ad565b9050805167ffffffffffffffff811115610ad257610ad1611e35565b5b604051908082528060200260200182016040528015610b005781602001602082028036833780820191505090505b509550805167ffffffffffffffff811115610b1e57610b1d611e35565b5b604051908082528060200260200182016040528015610b4c5781602001602082028036833780820191505090505b509450805167ffffffffffffffff811115610b6a57610b69611e35565b5b604051908082528060200260200182016040528015610b985781602001602082028036833780820191505090505b509350805167ffffffffffffffff811115610bb657610bb5611e35565b5b604051908082528060200260200182016040528015610be45781602001602082028036833780820191505090505b509250805167ffffffffffffffff811115610c0257610c01611e35565b5b604051908082528060200260200182016040528015610c305781602001602082028036833780820191505090505b509150600087905060005b8251811015610d7957828181518110610c5757610c56611f99565b5b602002602001015160200151888281518110610c7657610c75611f99565b5b602002602001019073ffffffffffffffffffffffffffffffffffffffff16908173ffffffffffffffffffffffffffffffffffffffff1681525050600080600080610cda8c8681518110610ccc57610ccb611f99565b5b60200260200101518761079c565b9350935093509350838b8681518110610cf657610cf5611f99565b5b602002602001018181525050828a8681518110610d1657610d15611f99565b5b60200260200101818152505081898681518110610d3657610d35611f99565b5b60200260200101818152505080888681518110610d5657610d55611f99565b5b602002602001018181525050505050508080610d7190611fc8565b915050610c3b565b50505091939590929450565b606080606080606080868810610dd0576040517f08c379a0000000000000000000000000000000000000000000000000000000008152600401610dc790611bfd565b60405180910390fd5b600160009054906101000a900473ffffffffffffffffffffffffffffffffffffffff1673ffffffffffffffffffffffffffffffffffffffff166378147c056040518163ffffffff1660e01b8152600401602060405180830381865afa158015610e3d573d6000803e3d6000fd5b505050506040513d601f19601f82011682018060405250810190610e619190611c32565b881015610ea3576040517f08c379a0000000000000000000000000000000000000000000000000000000008152600401610e9a90611cd1565b60405180910390fd5b600260009054906101000a900473ffffffffffffffffffffffffffffffffffffffff1673ffffffffffffffffffffffffffffffffffffffff16632b57298b426040518263ffffffff1660e01b8152600401610efe9190611cf1565b602060405180830381865afa158015610f1b573d6000803e3d6000fd5b505050506040513d601f19601f82011682018060405250810190610f3f9190611c32565b871115610f81576040517f08c379a0000000000000000000000000000000000000000000000000000000008152600401610f7890611d7e565b60405180910390fd5b60018888610f8f9190611dcd565b610f999190611e01565b67ffffffffffffffff811115610fb257610fb1611e35565b5b604051908082528060200260200182016040528015610fe05781602001602082028036833780820191505090505b50955060018888610ff19190611dcd565b610ffb9190611e01565b67ffffffffffffffff81111561101457611013611e35565b5b60405190808252806020026020018201604052801561104757816020015b60608152602001906001900390816110325790505b509450600188886110589190611dcd565b6110629190611e01565b67ffffffffffffffff81111561107b5761107a611e35565b5b6040519080825280602002602001820160405280156110ae57816020015b60608152602001906001900390816110995790505b509350600188886110bf9190611dcd565b6110c99190611e01565b67ffffffffffffffff8111156110e2576110e1611e35565b5b60405190808252806020026020018201604052801561111557816020015b60608152602001906001900390816111005790505b509250600188886111269190611dcd565b6111309190611e01565b67ffffffffffffffff81111561114957611148611e35565b5b60405190808252806020026020018201604052801561117c57816020015b60608152602001906001900390816111675790505b5091506001888861118d9190611dcd565b6111979190611e01565b67ffffffffffffffff8111156111b0576111af611e35565b5b6040519080825280602002602001820160405280156111e357816020015b60608152602001906001900390816111ce5790505b50905060008890505b87811161132357600080600080600061120486610943565b94509450945094509450848b8f8861121c9190611dcd565b8151811061122d5761122c611f99565b5b6020026020010181905250838a8f886112469190611dcd565b8151811061125757611256611f99565b5b602002602001018190525082898f886112709190611dcd565b8151811061128157611280611f99565b5b602002602001018190525081888f8861129a9190611dcd565b815181106112ab576112aa611f99565b5b602002602001018190525080878f886112c49190611dcd565b815181106112d5576112d4611f99565b5b6020026020010181905250858c8f886112ee9190611dcd565b815181106112ff576112fe611f99565b5b6020026020010181815250505050505050808061131b90611fc8565b9150506111ec565b509295509295509295565b6000604051905090565b600080fd5b600080fd5b600073ffffffffffffffffffffffffffffffffffffffff82169050919050565b600061136d82611342565b9050919050565b61137d81611362565b811461138857600080fd5b50565b60008135905061139a81611374565b92915050565b6000819050919050565b6113b3816113a0565b81146113be57600080fd5b50565b6000813590506113d0816113aa565b92915050565b6000806000606084860312156113ef576113ee611338565b5b60006113fd8682870161138b565b935050602061140e868287016113c1565b925050604061141f868287016113c1565b9150509250925092565b600081519050919050565b600082825260208201905092915050565b6000819050602082019050919050565b61145e816113a0565b82525050565b60006114708383611455565b60208301905092915050565b6000602082019050919050565b600061149482611429565b61149e8185611434565b93506114a983611445565b8060005b838110156114da5781516114c18882611464565b97506114cc8361147c565b9250506001810190506114ad565b5085935050505092915050565b600060a08201905081810360008301526115018188611489565b905081810360208301526115158187611489565b905081810360408301526115298186611489565b9050818103606083015261153d8185611489565b905081810360808301526115518184611489565b90509695505050505050565b6000806040838503121561157457611573611338565b5b60006115828582860161138b565b9250506020611593858286016113c1565b9150509250929050565b6115a6816113a0565b82525050565b60006080820190506115c1600083018761159d565b6115ce602083018661159d565b6115db604083018561159d565b6115e8606083018461159d565b95945050505050565b60006020828403121561160757611606611338565b5b6000611615848285016113c1565b91505092915050565b600081519050919050565b600082825260208201905092915050565b6000819050602082019050919050565b61165381611362565b82525050565b6000611665838361164a565b60208301905092915050565b6000602082019050919050565b60006116898261161e565b6116938185611629565b935061169e8361163a565b8060005b838110156116cf5781516116b68882611659565b97506116c183611671565b9250506001810190506116a2565b5085935050505092915050565b600060a08201905081810360008301526116f6818861167e565b9050818103602083015261170a8187611489565b9050818103604083015261171e8186611489565b905081810360608301526117328185611489565b905081810360808301526117468184611489565b90509695505050505050565b6000806040838503121561176957611768611338565b5b6000611777858286016113c1565b9250506020611788858286016113c1565b9150509250929050565b600081519050919050565b600082825260208201905092915050565b6000819050602082019050919050565b600082825260208201905092915050565b60006117da8261161e565b6117e481856117be565b93506117ef8361163a565b8060005b838110156118205781516118078882611659565b975061181283611671565b9250506001810190506117f3565b5085935050505092915050565b600061183983836117cf565b905092915050565b6000602082019050919050565b600061185982611792565b611863818561179d565b935083602082028501611875856117ae565b8060005b858110156118b15784840389528151611892858261182d565b945061189d83611841565b925060208a01995050600181019050611879565b50829750879550505050505092915050565b600081519050919050565b600082825260208201905092915050565b6000819050602082019050919050565b600082825260208201905092915050565b600061190b82611429565b61191581856118ef565b935061192083611445565b8060005b838110156119515781516119388882611464565b97506119438361147c565b925050600181019050611924565b5085935050505092915050565b600061196a8383611900565b905092915050565b6000602082019050919050565b600061198a826118c3565b61199481856118ce565b9350836020820285016119a6856118df565b8060005b858110156119e257848403895281516119c3858261195e565b94506119ce83611972565b925060208a019950506001810190506119aa565b50829750879550505050505092915050565b600060c0820190508181036000830152611a0e8189611489565b90508181036020830152611a22818861184e565b90508181036040830152611a36818761197f565b90508181036060830152611a4a818661197f565b90508181036080830152611a5e818561197f565b905081810360a0830152611a72818461197f565b9050979650505050505050565b611a8881611362565b82525050565b6000602082019050611aa36000830184611a7f565b92915050565b60008115159050919050565b611abe81611aa9565b8114611ac957600080fd5b50565b600081519050611adb81611ab5565b92915050565b600060208284031215611af757611af6611338565b5b6000611b0584828501611acc565b91505092915050565b600082825260208201905092915050565b7f456d706c6f796565206e6f7420726567697374657265642e0000000000000000600082015250565b6000611b55601883611b0e565b9150611b6082611b1f565b602082019050919050565b60006020820190508181036000830152611b8481611b48565b9050919050565b7f53746172742064617465206d757374206265206c657373207468616e20656e6460008201527f20646174652e0000000000000000000000000000000000000000000000000000602082015250565b6000611be7602683611b0e565b9150611bf282611b8b565b604082019050919050565b60006020820190508181036000830152611c1681611bda565b9050919050565b600081519050611c2c816113aa565b92915050565b600060208284031215611c4857611c47611338565b5b6000611c5684828501611c1d565b91505092915050565b7f53746172742064617465206d75737420626520657175616c73206f722067726160008201527f74686572207468616e206372656174696f6e446174652e000000000000000000602082015250565b6000611cbb603783611b0e565b9150611cc682611c5f565b604082019050919050565b60006020820190508181036000830152611cea81611cae565b9050919050565b6000602082019050611d06600083018461159d565b92915050565b7f456e642064617465206d75737420626520657175616c73206f72206c6573732060008201527f7468616e20746f6461792e000000000000000000000000000000000000000000602082015250565b6000611d68602b83611b0e565b9150611d7382611d0c565b604082019050919050565b60006020820190508181036000830152611d9781611d5b565b9050919050565b7f4e487b7100000000000000000000000000000000000000000000000000000000600052601160045260246000fd5b6000611dd8826113a0565b9150611de3836113a0565b9250828203905081811115611dfb57611dfa611d9e565b5b92915050565b6000611e0c826113a0565b9150611e17836113a0565b9250828201905080821115611e2f57611e2e611d9e565b5b92915050565b7f4e487b7100000000000000000000000000000000000000000000000000000000600052604160045260246000fd5b6000604082019050611e796000830185611a7f565b611e86602083018461159d565b9392505050565b600080fd5b6000601f19601f8301169050919050565b611eac82611e92565b810181811067ffffffffffffffff82111715611ecb57611eca611e35565b5b80604052505050565b6000611ede61132e565b9050611eea8282611ea3565b919050565b600080fd5b600060808284031215611f0a57611f09611e8d565b5b611f146080611ed4565b90506000611f2484828501611c1d565b6000830152506020611f3884828501611c1d565b6020830152506040611f4c84828501611c1d565b6040830152506060611f6084828501611c1d565b60608301525092915050565b600060808284031215611f8257611f81611338565b5b6000611f9084828501611ef4565b91505092915050565b7f4e487b7100000000000000000000000000000000000000000000000000000000600052603260045260246000fd5b6000611fd3826113a0565b91507fffffffffffffffffffffffffffffffffffffffffffffffffffffffffffffffff820361200557612004611d9e565b5b600182019050919050565b600080fd5b600067ffffffffffffffff8211156120305761202f611e35565b5b602082029050602081019050919050565b600080fd5b60008151905061205581611374565b92915050565b600080fd5b600067ffffffffffffffff82111561207b5761207a611e35565b5b61208482611e92565b9050602081019050919050565b60005b838110156120af578082015181840152602081019050612094565b60008484015250505050565b60006120ce6120c984612060565b611ed4565b9050828152602081018484840111156120ea576120e961205b565b5b6120f5848285612091565b509392505050565b600082601f83011261211257612111612010565b5b81516121228482602086016120bb565b91505092915050565b6002811061213857600080fd5b50565b60008151905061214a8161212b565b92915050565b600060a0828403121561216657612165611e8d565b5b61217060a0611ed4565b9050600061218084828501611c1d565b600083015250602061219484828501612046565b60208301525060406121a884828501611c1d565b604083015250606082015167ffffffffffffffff8111156121cc576121cb611eef565b5b6121d8848285016120fd565b60608301525060806121ec8482850161213b565b60808301525092915050565b600061220b61220684612015565b611ed4565b9050808382526020820190506020840283018581111561222e5761222d612041565b5b835b8181101561227557805167ffffffffffffffff81111561225357612252612010565b5b8086016122608982612150565b85526020850194505050602081019050612230565b5050509392505050565b600082601f83011261229457612293612010565b5b81516122a48482602086016121f8565b91505092915050565b6000602082840312156122c3576122c2611338565b5b600082015167ffffffffffffffff8111156122e1576122e061133d565b5b6122ed8482850161227f565b9150509291505056fea2646970667358221220d548a6acf2cc1eef3bbe2374e3c2f461361aeeafa6fc01e322d9eae4cf5c926864736f6c63430008110033",
  "linkReferences": {},
  "deployedLinkReferences": {}
}