{
  "_format": "hh-sol-artifact-1",
  "contractName": "EmployeeContract",
  "sourceName": "contracts/EmployeeContract.sol",
  "abi": [
    {
      "inputs": [
        {
          "internalType": "address",
          "name": "_adm",
          "type": "address"
        }
      ],
      "stateMutability": "nonpayable",
      "type": "constructor"
    },
    {
      "inputs": [
        {
          "internalType": "address",
          "name": "_address",
          "type": "address"
        },
        {
          "internalType": "string",
          "name": "_name",
          "type": "string"
        },
        {
          "internalType": "uint256",
          "name": "_taxId",
          "type": "uint256"
        }
      ],
      "name": "addEmployee",
      "outputs": [],
      "stateMutability": "nonpayable",
      "type": "function"
    },
    {
      "inputs": [
        {
          "internalType": "address",
          "name": "_address",
          "type": "address"
        }
      ],
      "name": "checkIfEmployeeExists",
      "outputs": [
        {
          "internalType": "bool",
          "name": "",
          "type": "bool"
        }
      ],
      "stateMutability": "view",
      "type": "function"
    },
    {
      "inputs": [],
      "name": "getAllEmployees",
      "outputs": [
        {
          "components": [
            {
              "internalType": "uint256",
              "name": "idEmployee",
              "type": "uint256"
            },
            {
              "internalType": "address",
              "name": "employeeAddress",
              "type": "address"
            },
            {
              "internalType": "uint256",
              "name": "taxId",
              "type": "uint256"
            },
            {
              "internalType": "string",
              "name": "name",
              "type": "string"
            },
            {
              "internalType": "enum EmployeeContract.State",
              "name": "stateOf",
              "type": "uint8"
            }
          ],
          "internalType": "struct EmployeeContract.Employee[]",
          "name": "",
          "type": "tuple[]"
        }
      ],
      "stateMutability": "view",
      "type": "function"
    },
    {
      "inputs": [
        {
          "internalType": "uint256",
          "name": "_id",
          "type": "uint256"
        }
      ],
      "name": "getEmployee",
      "outputs": [
        {
          "components": [
            {
              "internalType": "uint256",
              "name": "idEmployee",
              "type": "uint256"
            },
            {
              "internalType": "address",
              "name": "employeeAddress",
              "type": "address"
            },
            {
              "internalType": "uint256",
              "name": "taxId",
              "type": "uint256"
            },
            {
              "internalType": "string",
              "name": "name",
              "type": "string"
            },
            {
              "internalType": "enum EmployeeContract.State",
              "name": "stateOf",
              "type": "uint8"
            }
          ],
          "internalType": "struct EmployeeContract.Employee",
          "name": "",
          "type": "tuple"
        }
      ],
      "stateMutability": "view",
      "type": "function"
    },
    {
      "inputs": [
        {
          "internalType": "address",
          "name": "_address",
          "type": "address"
        },
        {
          "internalType": "uint256",
          "name": "_taxId",
          "type": "uint256"
        },
        {
          "internalType": "string",
          "name": "_name",
          "type": "string"
        },
        {
          "internalType": "enum EmployeeContract.State",
          "name": "_state",
          "type": "uint8"
        }
      ],
      "name": "updateEmployee",
      "outputs": [],
      "stateMutability": "nonpayable",
      "type": "function"
    }
  ],
  "bytecode": "0x60806040523480156200001157600080fd5b5060405162001e3038038062001e308339818101604052810190620000379190620000e9565b80600260006101000a81548173ffffffffffffffffffffffffffffffffffffffff021916908373ffffffffffffffffffffffffffffffffffffffff160217905550506200011b565b600080fd5b600073ffffffffffffffffffffffffffffffffffffffff82169050919050565b6000620000b18262000084565b9050919050565b620000c381620000a4565b8114620000cf57600080fd5b50565b600081519050620000e381620000b8565b92915050565b6000602082840312156200010257620001016200007f565b5b60006200011284828501620000d2565b91505092915050565b611d05806200012b6000396000f3fe608060405234801561001057600080fd5b50600436106100575760003560e01c8063230d0ece1461005c57806328f7aa3614610078578063bca9a5c514610094578063e3366fed146100c4578063fb4cf425146100e2575b600080fd5b61007660048036038101906100719190611119565b610112565b005b610092600480360381019061008d919061119c565b6106c9565b005b6100ae60048036038101906100a9919061120b565b610aa2565b6040516100bb91906113c2565b60405180910390f35b6100cc610c05565b6040516100d9919061151c565b60405180910390f35b6100fc60048036038101906100f7919061153e565b610e01565b6040516101099190611586565b60405180910390f35b600260009054906101000a900473ffffffffffffffffffffffffffffffffffffffff1673ffffffffffffffffffffffffffffffffffffffff1663debcf75d336040518263ffffffff1660e01b815260040161016d91906115b0565b602060405180830381865afa15801561018a573d6000803e3d6000fd5b505050506040513d601f19601f820116820180604052508101906101ae91906115f7565b6101ed576040517f08c379a00000000000000000000000000000000000000000000000000000000081526004016101e490611681565b60405180910390fd5b600073ffffffffffffffffffffffffffffffffffffffff168473ffffffffffffffffffffffffffffffffffffffff160361025c576040517f08c379a0000000000000000000000000000000000000000000000000000000008152600401610253906116ed565b60405180910390fd5b6000830361029f576040517f08c379a000000000000000000000000000000000000000000000000000000000815260040161029690611759565b60405180910390fd5b6040516020016102ae906117aa565b60405160208183030381529060405280519060200120826040516020016102d591906117f0565b604051602081830303815290604052805190602001200361032b576040517f08c379a000000000000000000000000000000000000000000000000000000000815260040161032290611853565b60405180910390fd5b61033484610e01565b610373576040517f08c379a000000000000000000000000000000000000000000000000000000000815260040161036a906118bf565b60405180910390fd5b600080600080600090505b600180549050811015610417578773ffffffffffffffffffffffffffffffffffffffff16600182815481106103b6576103b56118df565b5b9060005260206000200160009054906101000a900473ffffffffffffffffffffffffffffffffffffffff1673ffffffffffffffffffffffffffffffffffffffff160361040457809150610417565b808061040f9061193d565b91505061037e565b508673ffffffffffffffffffffffffffffffffffffffff1660008083815260200190815260200160002060010160009054906101000a900473ffffffffffffffffffffffffffffffffffffffff1673ffffffffffffffffffffffffffffffffffffffff16146104bd576001925060008082815260200190815260200160002060010160009054906101000a900473ffffffffffffffffffffffffffffffffffffffff1691505b6040518060a001604052808281526020018873ffffffffffffffffffffffffffffffffffffffff168152602001878152602001868152602001856001811115610509576105086112d5565b5b8152506000808381526020019081526020016000206000820151816000015560208201518160010160006101000a81548173ffffffffffffffffffffffffffffffffffffffff021916908373ffffffffffffffffffffffffffffffffffffffff16021790555060408201518160020155606082015181600301908161058e9190611b91565b5060808201518160040160006101000a81548160ff021916908360018111156105ba576105b96112d5565b5b021790555090505082156106c05760005b6001805490508110156106be578273ffffffffffffffffffffffffffffffffffffffff1660018281548110610603576106026118df565b5b9060005260206000200160009054906101000a900473ffffffffffffffffffffffffffffffffffffffff1673ffffffffffffffffffffffffffffffffffffffff16036106ab57876001828154811061065e5761065d6118df565b5b9060005260206000200160006101000a81548173ffffffffffffffffffffffffffffffffffffffff021916908373ffffffffffffffffffffffffffffffffffffffff1602179055506106be565b80806106b69061193d565b9150506105cb565b505b50505050505050565b600260009054906101000a900473ffffffffffffffffffffffffffffffffffffffff1673ffffffffffffffffffffffffffffffffffffffff1663debcf75d336040518263ffffffff1660e01b815260040161072491906115b0565b602060405180830381865afa158015610741573d6000803e3d6000fd5b505050506040513d601f19601f8201168201806040525081019061076591906115f7565b6107a4576040517f08c379a000000000000000000000000000000000000000000000000000000000815260040161079b90611681565b60405180910390fd5b6107ad83610e01565b156107ed576040517f08c379a00000000000000000000000000000000000000000000000000000000081526004016107e490611caf565b60405180910390fd5b60008103610830576040517f08c379a000000000000000000000000000000000000000000000000000000000815260040161082790611759565b60405180910390fd5b60405160200161083f906117aa565b604051602081830303815290604052805190602001208260405160200161086691906117f0565b60405160208183030381529060405280519060200120036108bc576040517f08c379a00000000000000000000000000000000000000000000000000000000081526004016108b390611853565b60405180910390fd5b600073ffffffffffffffffffffffffffffffffffffffff168373ffffffffffffffffffffffffffffffffffffffff160361092b576040517f08c379a0000000000000000000000000000000000000000000000000000000008152600401610922906116ed565b60405180910390fd5b6040518060a0016040528060018054905081526020018473ffffffffffffffffffffffffffffffffffffffff16815260200182815260200183815260200160018081111561097c5761097b6112d5565b5b81525060008060018054905081526020019081526020016000206000820151816000015560208201518160010160006101000a81548173ffffffffffffffffffffffffffffffffffffffff021916908373ffffffffffffffffffffffffffffffffffffffff160217905550604082015181600201556060820151816003019081610a069190611b91565b5060808201518160040160006101000a81548160ff02191690836001811115610a3257610a316112d5565b5b02179055509050506001839080600181540180825580915050600190039060005260206000200160009091909190916101000a81548173ffffffffffffffffffffffffffffffffffffffff021916908373ffffffffffffffffffffffffffffffffffffffff160217905550505050565b610aaa610eaf565b6000808381526020019081526020016000206040518060a0016040529081600082015481526020016001820160009054906101000a900473ffffffffffffffffffffffffffffffffffffffff1673ffffffffffffffffffffffffffffffffffffffff1673ffffffffffffffffffffffffffffffffffffffff16815260200160028201548152602001600382018054610b41906119b4565b80601f0160208091040260200160405190810160405280929190818152602001828054610b6d906119b4565b8015610bba5780601f10610b8f57610100808354040283529160200191610bba565b820191906000526020600020905b815481529060010190602001808311610b9d57829003601f168201915b505050505081526020016004820160009054906101000a900460ff166001811115610be857610be76112d5565b5b6001811115610bfa57610bf96112d5565b5b815250509050919050565b6060600060018054905067ffffffffffffffff811115610c2857610c27610fc9565b5b604051908082528060200260200182016040528015610c6157816020015b610c4e610eaf565b815260200190600190039081610c465790505b50905060005b600180549050811015610df9576000808281526020019081526020016000206040518060a0016040529081600082015481526020016001820160009054906101000a900473ffffffffffffffffffffffffffffffffffffffff1673ffffffffffffffffffffffffffffffffffffffff1673ffffffffffffffffffffffffffffffffffffffff16815260200160028201548152602001600382018054610d0b906119b4565b80601f0160208091040260200160405190810160405280929190818152602001828054610d37906119b4565b8015610d845780601f10610d5957610100808354040283529160200191610d84565b820191906000526020600020905b815481529060010190602001808311610d6757829003601f168201915b505050505081526020016004820160009054906101000a900460ff166001811115610db257610db16112d5565b5b6001811115610dc457610dc36112d5565b5b81525050828281518110610ddb57610dda6118df565b5b60200260200101819052508080610df19061193d565b915050610c67565b508091505090565b600080600090505b600180549050811015610ea4578273ffffffffffffffffffffffffffffffffffffffff1660018281548110610e4157610e406118df565b5b9060005260206000200160009054906101000a900473ffffffffffffffffffffffffffffffffffffffff1673ffffffffffffffffffffffffffffffffffffffff1603610e91576001915050610eaa565b8080610e9c9061193d565b915050610e09565b50600090505b919050565b6040518060a0016040528060008152602001600073ffffffffffffffffffffffffffffffffffffffff168152602001600081526020016060815260200160006001811115610f0057610eff6112d5565b5b81525090565b6000604051905090565b600080fd5b600080fd5b600073ffffffffffffffffffffffffffffffffffffffff82169050919050565b6000610f4582610f1a565b9050919050565b610f5581610f3a565b8114610f6057600080fd5b50565b600081359050610f7281610f4c565b92915050565b6000819050919050565b610f8b81610f78565b8114610f9657600080fd5b50565b600081359050610fa881610f82565b92915050565b600080fd5b600080fd5b6000601f19601f8301169050919050565b7f4e487b7100000000000000000000000000000000000000000000000000000000600052604160045260246000fd5b61100182610fb8565b810181811067ffffffffffffffff821117156110205761101f610fc9565b5b80604052505050565b6000611033610f06565b905061103f8282610ff8565b919050565b600067ffffffffffffffff82111561105f5761105e610fc9565b5b61106882610fb8565b9050602081019050919050565b82818337600083830152505050565b600061109761109284611044565b611029565b9050828152602081018484840111156110b3576110b2610fb3565b5b6110be848285611075565b509392505050565b600082601f8301126110db576110da610fae565b5b81356110eb848260208601611084565b91505092915050565b6002811061110157600080fd5b50565b600081359050611113816110f4565b92915050565b6000806000806080858703121561113357611132610f10565b5b600061114187828801610f63565b945050602061115287828801610f99565b935050604085013567ffffffffffffffff81111561117357611172610f15565b5b61117f878288016110c6565b925050606061119087828801611104565b91505092959194509250565b6000806000606084860312156111b5576111b4610f10565b5b60006111c386828701610f63565b935050602084013567ffffffffffffffff8111156111e4576111e3610f15565b5b6111f0868287016110c6565b925050604061120186828701610f99565b9150509250925092565b60006020828403121561122157611220610f10565b5b600061122f84828501610f99565b91505092915050565b61124181610f78565b82525050565b61125081610f3a565b82525050565b600081519050919050565b600082825260208201905092915050565b60005b83811015611290578082015181840152602081019050611275565b60008484015250505050565b60006112a782611256565b6112b18185611261565b93506112c1818560208601611272565b6112ca81610fb8565b840191505092915050565b7f4e487b7100000000000000000000000000000000000000000000000000000000600052602160045260246000fd5b60028110611315576113146112d5565b5b50565b600081905061132682611304565b919050565b600061133682611318565b9050919050565b6113468161132b565b82525050565b600060a0830160008301516113646000860182611238565b5060208301516113776020860182611247565b50604083015161138a6040860182611238565b50606083015184820360608601526113a2828261129c565b91505060808301516113b7608086018261133d565b508091505092915050565b600060208201905081810360008301526113dc818461134c565b905092915050565b600081519050919050565b600082825260208201905092915050565b6000819050602082019050919050565b600060a0830160008301516114286000860182611238565b50602083015161143b6020860182611247565b50604083015161144e6040860182611238565b5060608301518482036060860152611466828261129c565b915050608083015161147b608086018261133d565b508091505092915050565b60006114928383611410565b905092915050565b6000602082019050919050565b60006114b2826113e4565b6114bc81856113ef565b9350836020820285016114ce85611400565b8060005b8581101561150a57848403895281516114eb8582611486565b94506114f68361149a565b925060208a019950506001810190506114d2565b50829750879550505050505092915050565b6000602082019050818103600083015261153681846114a7565b905092915050565b60006020828403121561155457611553610f10565b5b600061156284828501610f63565b91505092915050565b60008115159050919050565b6115808161156b565b82525050565b600060208201905061159b6000830184611577565b92915050565b6115aa81610f3a565b82525050565b60006020820190506115c560008301846115a1565b92915050565b6115d48161156b565b81146115df57600080fd5b50565b6000815190506115f1816115cb565b92915050565b60006020828403121561160d5761160c610f10565b5b600061161b848285016115e2565b91505092915050565b600082825260208201905092915050565b7f53656e646572206973206e6f742061646d696e6973747261746f722e00000000600082015250565b600061166b601c83611624565b915061167682611635565b602082019050919050565b6000602082019050818103600083015261169a8161165e565b9050919050565b7f41646472657373206e6f7420676976656e2e0000000000000000000000000000600082015250565b60006116d7601283611624565b91506116e2826116a1565b602082019050919050565b60006020820190508181036000830152611706816116ca565b9050919050565b7f5461784964206e6f7420676976656e2e00000000000000000000000000000000600082015250565b6000611743601083611624565b915061174e8261170d565b602082019050919050565b6000602082019050818103600083015261177281611736565b9050919050565b600081905092915050565b50565b6000611794600083611779565b915061179f82611784565b600082019050919050565b60006117b582611787565b9150819050919050565b60006117ca82611256565b6117d48185611779565b93506117e4818560208601611272565b80840191505092915050565b60006117fc82846117bf565b915081905092915050565b7f4e616d65206e6f7420676976656e2e0000000000000000000000000000000000600082015250565b600061183d600f83611624565b915061184882611807565b602082019050919050565b6000602082019050818103600083015261186c81611830565b9050919050565b7f456d706c6f796565206e6f74206578697374732e000000000000000000000000600082015250565b60006118a9601483611624565b91506118b482611873565b602082019050919050565b600060208201905081810360008301526118d88161189c565b9050919050565b7f4e487b7100000000000000000000000000000000000000000000000000000000600052603260045260246000fd5b7f4e487b7100000000000000000000000000000000000000000000000000000000600052601160045260246000fd5b600061194882610f78565b91507fffffffffffffffffffffffffffffffffffffffffffffffffffffffffffffffff820361197a5761197961190e565b5b600182019050919050565b7f4e487b7100000000000000000000000000000000000000000000000000000000600052602260045260246000fd5b600060028204905060018216806119cc57607f821691505b6020821081036119df576119de611985565b5b50919050565b60008190508160005260206000209050919050565b60006020601f8301049050919050565b600082821b905092915050565b600060088302611a477fffffffffffffffffffffffffffffffffffffffffffffffffffffffffffffffff82611a0a565b611a518683611a0a565b95508019841693508086168417925050509392505050565b6000819050919050565b6000611a8e611a89611a8484610f78565b611a69565b610f78565b9050919050565b6000819050919050565b611aa883611a73565b611abc611ab482611a95565b848454611a17565b825550505050565b600090565b611ad1611ac4565b611adc818484611a9f565b505050565b5b81811015611b0057611af5600082611ac9565b600181019050611ae2565b5050565b601f821115611b4557611b16816119e5565b611b1f846119fa565b81016020851015611b2e578190505b611b42611b3a856119fa565b830182611ae1565b50505b505050565b600082821c905092915050565b6000611b6860001984600802611b4a565b1980831691505092915050565b6000611b818383611b57565b9150826002028217905092915050565b611b9a82611256565b67ffffffffffffffff811115611bb357611bb2610fc9565b5b611bbd82546119b4565b611bc8828285611b04565b600060209050601f831160018114611bfb5760008415611be9578287015190505b611bf38582611b75565b865550611c5b565b601f198416611c09866119e5565b60005b82811015611c3157848901518255600182019150602085019450602081019050611c0c565b86831015611c4e5784890151611c4a601f891682611b57565b8355505b6001600288020188555050505b505050505050565b7f456d706c6f79656520616c7265616479206578697374732e0000000000000000600082015250565b6000611c99601883611624565b9150611ca482611c63565b602082019050919050565b60006020820190508181036000830152611cc881611c8c565b905091905056fea2646970667358221220ffef44b8dda6898669e0a2ef494ede2fc9501180559c160b194fc03e7683109b64736f6c63430008110033",
  "linkReferences": {},
  "deployedLinkReferences": {}
}