{
  "_format": "hh-sol-artifact-1",
  "contractName": "AdministratorContract",
  "sourceName": "contracts/AdministratorContract.sol",
  "abi": [
    {
      "inputs": [
        {
          "internalType": "uint256",
          "name": "_taxId",
          "type": "uint256"
        },
        {
          "internalType": "string",
          "name": "_name",
          "type": "string"
        }
      ],
      "stateMutability": "nonpayable",
      "type": "constructor"
    },
    {
      "inputs": [
        {
          "internalType": "address",
          "name": "_address",
          "type": "address"
        },
        {
          "internalType": "string",
          "name": "_name",
          "type": "string"
        },
        {
          "internalType": "uint256",
          "name": "_taxId",
          "type": "uint256"
        }
      ],
      "name": "addAdministrator",
      "outputs": [],
      "stateMutability": "nonpayable",
      "type": "function"
    },
    {
      "inputs": [
        {
          "internalType": "address",
          "name": "_address",
          "type": "address"
        }
      ],
      "name": "checkIfAdministratorExists",
      "outputs": [
        {
          "internalType": "bool",
          "name": "",
          "type": "bool"
        }
      ],
      "stateMutability": "view",
      "type": "function"
    },
    {
      "inputs": [
        {
          "internalType": "uint256",
          "name": "_id",
          "type": "uint256"
        }
      ],
      "name": "getAdministrator",
      "outputs": [
        {
          "components": [
            {
              "internalType": "uint256",
              "name": "idAdministrator",
              "type": "uint256"
            },
            {
              "internalType": "address",
              "name": "administratorAddress",
              "type": "address"
            },
            {
              "internalType": "uint256",
              "name": "taxId",
              "type": "uint256"
            },
            {
              "internalType": "string",
              "name": "name",
              "type": "string"
            },
            {
              "internalType": "enum AdministratorContract.State",
              "name": "stateOf",
              "type": "uint8"
            }
          ],
          "internalType": "struct AdministratorContract.Administrator",
          "name": "",
          "type": "tuple"
        }
      ],
      "stateMutability": "view",
      "type": "function"
    },
    {
      "inputs": [],
      "name": "getAllAdministrators",
      "outputs": [
        {
          "components": [
            {
              "internalType": "uint256",
              "name": "idAdministrator",
              "type": "uint256"
            },
            {
              "internalType": "address",
              "name": "administratorAddress",
              "type": "address"
            },
            {
              "internalType": "uint256",
              "name": "taxId",
              "type": "uint256"
            },
            {
              "internalType": "string",
              "name": "name",
              "type": "string"
            },
            {
              "internalType": "enum AdministratorContract.State",
              "name": "stateOf",
              "type": "uint8"
            }
          ],
          "internalType": "struct AdministratorContract.Administrator[]",
          "name": "",
          "type": "tuple[]"
        }
      ],
      "stateMutability": "view",
      "type": "function"
    },
    {
      "inputs": [
        {
          "internalType": "address",
          "name": "_address",
          "type": "address"
        },
        {
          "internalType": "uint256",
          "name": "_taxId",
          "type": "uint256"
        },
        {
          "internalType": "string",
          "name": "_name",
          "type": "string"
        },
        {
          "internalType": "enum AdministratorContract.State",
          "name": "_state",
          "type": "uint8"
        }
      ],
      "name": "updateAdministrator",
      "outputs": [],
      "stateMutability": "nonpayable",
      "type": "function"
    }
  ],
  "bytecode": "0x60806040523480156200001157600080fd5b50604051620021693803806200216983398181016040528101906200003791906200037e565b6001339080600181540180825580915050600190039060005260206000200160009091909190916101000a81548173ffffffffffffffffffffffffffffffffffffffff021916908373ffffffffffffffffffffffffffffffffffffffff1602179055506040518060a00160405280600081526020013373ffffffffffffffffffffffffffffffffffffffff168152602001838152602001828152602001600180811115620000ea57620000e9620003e4565b5b8152506000808081526020019081526020016000206000820151816000015560208201518160010160006101000a81548173ffffffffffffffffffffffffffffffffffffffff021916908373ffffffffffffffffffffffffffffffffffffffff16021790555060408201518160020155606082015181600301908162000171919062000654565b5060808201518160040160006101000a81548160ff02191690836001811115620001a0576200019f620003e4565b5b021790555090505050506200073b565b6000604051905090565b600080fd5b600080fd5b6000819050919050565b620001d981620001c4565b8114620001e557600080fd5b50565b600081519050620001f981620001ce565b92915050565b600080fd5b600080fd5b6000601f19601f8301169050919050565b7f4e487b7100000000000000000000000000000000000000000000000000000000600052604160045260246000fd5b620002548262000209565b810181811067ffffffffffffffff821117156200027657620002756200021a565b5b80604052505050565b60006200028b620001b0565b905062000299828262000249565b919050565b600067ffffffffffffffff821115620002bc57620002bb6200021a565b5b620002c78262000209565b9050602081019050919050565b60005b83811015620002f4578082015181840152602081019050620002d7565b60008484015250505050565b60006200031762000311846200029e565b6200027f565b90508281526020810184848401111562000336576200033562000204565b5b62000343848285620002d4565b509392505050565b600082601f830112620003635762000362620001ff565b5b81516200037584826020860162000300565b91505092915050565b60008060408385031215620003985762000397620001ba565b5b6000620003a885828601620001e8565b925050602083015167ffffffffffffffff811115620003cc57620003cb620001bf565b5b620003da858286016200034b565b9150509250929050565b7f4e487b7100000000000000000000000000000000000000000000000000000000600052602160045260246000fd5b600081519050919050565b7f4e487b7100000000000000000000000000000000000000000000000000000000600052602260045260246000fd5b600060028204905060018216806200046657607f821691505b6020821081036200047c576200047b6200041e565b5b50919050565b60008190508160005260206000209050919050565b60006020601f8301049050919050565b600082821b905092915050565b600060088302620004e67fffffffffffffffffffffffffffffffffffffffffffffffffffffffffffffffff82620004a7565b620004f28683620004a7565b95508019841693508086168417925050509392505050565b6000819050919050565b6000620005356200052f6200052984620001c4565b6200050a565b620001c4565b9050919050565b6000819050919050565b620005518362000514565b6200056962000560826200053c565b848454620004b4565b825550505050565b600090565b6200058062000571565b6200058d81848462000546565b505050565b5b81811015620005b557620005a960008262000576565b60018101905062000593565b5050565b601f8211156200060457620005ce8162000482565b620005d98462000497565b81016020851015620005e9578190505b62000601620005f88562000497565b83018262000592565b50505b505050565b600082821c905092915050565b6000620006296000198460080262000609565b1980831691505092915050565b600062000644838362000616565b9150826002028217905092915050565b6200065f8262000413565b67ffffffffffffffff8111156200067b576200067a6200021a565b5b6200068782546200044d565b62000694828285620005b9565b600060209050601f831160018114620006cc5760008415620006b7578287015190505b620006c3858262000636565b86555062000733565b601f198416620006dc8662000482565b60005b828110156200070657848901518255600182019150602085019450602081019050620006df565b8683101562000726578489015162000722601f89168262000616565b8355505b6001600288020188555050505b505050505050565b611a1e806200074b6000396000f3fe608060405234801561001057600080fd5b50600436106100575760003560e01c80633dbe0c221461005c5780636ddd5db614610078578063c98ae20a14610096578063d23f3ca0146100b2578063debcf75d146100e2575b600080fd5b61007660048036038101906100719190610eb5565b610112565b005b610080610636565b60405161008d9190611184565b60405180910390f35b6100b060048036038101906100ab91906111a6565b610832565b005b6100cc60048036038101906100c79190611215565b610a3a565b6040516100d991906112b8565b60405180910390f35b6100fc60048036038101906100f791906112da565b610b9d565b6040516101099190611322565b60405180910390f35b61011b33610b9d565b61015a576040517f08c379a00000000000000000000000000000000000000000000000000000000081526004016101519061139a565b60405180910390fd5b600073ffffffffffffffffffffffffffffffffffffffff168473ffffffffffffffffffffffffffffffffffffffff16036101c9576040517f08c379a00000000000000000000000000000000000000000000000000000000081526004016101c090611406565b60405180910390fd5b6000830361020c576040517f08c379a000000000000000000000000000000000000000000000000000000000815260040161020390611472565b60405180910390fd5b60405160200161021b906114c3565b60405160208183030381529060405280519060200120826040516020016102429190611509565b6040516020818303038152906040528051906020012003610298576040517f08c379a000000000000000000000000000000000000000000000000000000000815260040161028f9061156c565b60405180910390fd5b6102a184610b9d565b6102e0576040517f08c379a00000000000000000000000000000000000000000000000000000000081526004016102d7906115d8565b60405180910390fd5b600080600080600090505b600180549050811015610384578773ffffffffffffffffffffffffffffffffffffffff1660018281548110610323576103226115f8565b5b9060005260206000200160009054906101000a900473ffffffffffffffffffffffffffffffffffffffff1673ffffffffffffffffffffffffffffffffffffffff160361037157809150610384565b808061037c90611656565b9150506102eb565b508673ffffffffffffffffffffffffffffffffffffffff1660008083815260200190815260200160002060010160009054906101000a900473ffffffffffffffffffffffffffffffffffffffff1673ffffffffffffffffffffffffffffffffffffffff161461042a576001925060008082815260200190815260200160002060010160009054906101000a900473ffffffffffffffffffffffffffffffffffffffff1691505b6040518060a001604052808281526020018873ffffffffffffffffffffffffffffffffffffffff16815260200187815260200186815260200185600181111561047657610475611001565b5b8152506000808381526020019081526020016000206000820151816000015560208201518160010160006101000a81548173ffffffffffffffffffffffffffffffffffffffff021916908373ffffffffffffffffffffffffffffffffffffffff1602179055506040820151816002015560608201518160030190816104fb91906118aa565b5060808201518160040160006101000a81548160ff0219169083600181111561052757610526611001565b5b0217905550905050821561062d5760005b60018054905081101561062b578273ffffffffffffffffffffffffffffffffffffffff16600182815481106105705761056f6115f8565b5b9060005260206000200160009054906101000a900473ffffffffffffffffffffffffffffffffffffffff1673ffffffffffffffffffffffffffffffffffffffff16036106185787600182815481106105cb576105ca6115f8565b5b9060005260206000200160006101000a81548173ffffffffffffffffffffffffffffffffffffffff021916908373ffffffffffffffffffffffffffffffffffffffff16021790555061062b565b808061062390611656565b915050610538565b505b50505050505050565b6060600060018054905067ffffffffffffffff81111561065957610658610d65565b5b60405190808252806020026020018201604052801561069257816020015b61067f610c4b565b8152602001906001900390816106775790505b50905060005b60018054905081101561082a576000808281526020019081526020016000206040518060a0016040529081600082015481526020016001820160009054906101000a900473ffffffffffffffffffffffffffffffffffffffff1673ffffffffffffffffffffffffffffffffffffffff1673ffffffffffffffffffffffffffffffffffffffff1681526020016002820154815260200160038201805461073c906116cd565b80601f0160208091040260200160405190810160405280929190818152602001828054610768906116cd565b80156107b55780601f1061078a576101008083540402835291602001916107b5565b820191906000526020600020905b81548152906001019060200180831161079857829003601f168201915b505050505081526020016004820160009054906101000a900460ff1660018111156107e3576107e2611001565b5b60018111156107f5576107f4611001565b5b8152505082828151811061080c5761080b6115f8565b5b6020026020010181905250808061082290611656565b915050610698565b508091505090565b61083b33610b9d565b61087a576040517f08c379a00000000000000000000000000000000000000000000000000000000081526004016108719061139a565b60405180910390fd5b61088383610b9d565b156108c3576040517f08c379a00000000000000000000000000000000000000000000000000000000081526004016108ba906119c8565b60405180910390fd5b6040518060a0016040528060018054905081526020013373ffffffffffffffffffffffffffffffffffffffff16815260200182815260200183815260200160018081111561091457610913611001565b5b81525060008060018054905081526020019081526020016000206000820151816000015560208201518160010160006101000a81548173ffffffffffffffffffffffffffffffffffffffff021916908373ffffffffffffffffffffffffffffffffffffffff16021790555060408201518160020155606082015181600301908161099e91906118aa565b5060808201518160040160006101000a81548160ff021916908360018111156109ca576109c9611001565b5b02179055509050506001839080600181540180825580915050600190039060005260206000200160009091909190916101000a81548173ffffffffffffffffffffffffffffffffffffffff021916908373ffffffffffffffffffffffffffffffffffffffff160217905550505050565b610a42610c4b565b6000808381526020019081526020016000206040518060a0016040529081600082015481526020016001820160009054906101000a900473ffffffffffffffffffffffffffffffffffffffff1673ffffffffffffffffffffffffffffffffffffffff1673ffffffffffffffffffffffffffffffffffffffff16815260200160028201548152602001600382018054610ad9906116cd565b80601f0160208091040260200160405190810160405280929190818152602001828054610b05906116cd565b8015610b525780601f10610b2757610100808354040283529160200191610b52565b820191906000526020600020905b815481529060010190602001808311610b3557829003601f168201915b505050505081526020016004820160009054906101000a900460ff166001811115610b8057610b7f611001565b5b6001811115610b9257610b91611001565b5b815250509050919050565b600080600090505b600180549050811015610c40578273ffffffffffffffffffffffffffffffffffffffff1660018281548110610bdd57610bdc6115f8565b5b9060005260206000200160009054906101000a900473ffffffffffffffffffffffffffffffffffffffff1673ffffffffffffffffffffffffffffffffffffffff1603610c2d576001915050610c46565b8080610c3890611656565b915050610ba5565b50600090505b919050565b6040518060a0016040528060008152602001600073ffffffffffffffffffffffffffffffffffffffff168152602001600081526020016060815260200160006001811115610c9c57610c9b611001565b5b81525090565b6000604051905090565b600080fd5b600080fd5b600073ffffffffffffffffffffffffffffffffffffffff82169050919050565b6000610ce182610cb6565b9050919050565b610cf181610cd6565b8114610cfc57600080fd5b50565b600081359050610d0e81610ce8565b92915050565b6000819050919050565b610d2781610d14565b8114610d3257600080fd5b50565b600081359050610d4481610d1e565b92915050565b600080fd5b600080fd5b6000601f19601f8301169050919050565b7f4e487b7100000000000000000000000000000000000000000000000000000000600052604160045260246000fd5b610d9d82610d54565b810181811067ffffffffffffffff82111715610dbc57610dbb610d65565b5b80604052505050565b6000610dcf610ca2565b9050610ddb8282610d94565b919050565b600067ffffffffffffffff821115610dfb57610dfa610d65565b5b610e0482610d54565b9050602081019050919050565b82818337600083830152505050565b6000610e33610e2e84610de0565b610dc5565b905082815260208101848484011115610e4f57610e4e610d4f565b5b610e5a848285610e11565b509392505050565b600082601f830112610e7757610e76610d4a565b5b8135610e87848260208601610e20565b91505092915050565b60028110610e9d57600080fd5b50565b600081359050610eaf81610e90565b92915050565b60008060008060808587031215610ecf57610ece610cac565b5b6000610edd87828801610cff565b9450506020610eee87828801610d35565b935050604085013567ffffffffffffffff811115610f0f57610f0e610cb1565b5b610f1b87828801610e62565b9250506060610f2c87828801610ea0565b91505092959194509250565b600081519050919050565b600082825260208201905092915050565b6000819050602082019050919050565b610f6d81610d14565b82525050565b610f7c81610cd6565b82525050565b600081519050919050565b600082825260208201905092915050565b60005b83811015610fbc578082015181840152602081019050610fa1565b60008484015250505050565b6000610fd382610f82565b610fdd8185610f8d565b9350610fed818560208601610f9e565b610ff681610d54565b840191505092915050565b7f4e487b7100000000000000000000000000000000000000000000000000000000600052602160045260246000fd5b6002811061104157611040611001565b5b50565b600081905061105282611030565b919050565b600061106282611044565b9050919050565b61107281611057565b82525050565b600060a0830160008301516110906000860182610f64565b5060208301516110a36020860182610f73565b5060408301516110b66040860182610f64565b50606083015184820360608601526110ce8282610fc8565b91505060808301516110e36080860182611069565b508091505092915050565b60006110fa8383611078565b905092915050565b6000602082019050919050565b600061111a82610f38565b6111248185610f43565b93508360208202850161113685610f54565b8060005b85811015611172578484038952815161115385826110ee565b945061115e83611102565b925060208a0199505060018101905061113a565b50829750879550505050505092915050565b6000602082019050818103600083015261119e818461110f565b905092915050565b6000806000606084860312156111bf576111be610cac565b5b60006111cd86828701610cff565b935050602084013567ffffffffffffffff8111156111ee576111ed610cb1565b5b6111fa86828701610e62565b925050604061120b86828701610d35565b9150509250925092565b60006020828403121561122b5761122a610cac565b5b600061123984828501610d35565b91505092915050565b600060a08301600083015161125a6000860182610f64565b50602083015161126d6020860182610f73565b5060408301516112806040860182610f64565b50606083015184820360608601526112988282610fc8565b91505060808301516112ad6080860182611069565b508091505092915050565b600060208201905081810360008301526112d28184611242565b905092915050565b6000602082840312156112f0576112ef610cac565b5b60006112fe84828501610cff565b91505092915050565b60008115159050919050565b61131c81611307565b82525050565b60006020820190506113376000830184611313565b92915050565b600082825260208201905092915050565b7f53656e646572206973206e6f742061646d696e6973747261746f722e00000000600082015250565b6000611384601c8361133d565b915061138f8261134e565b602082019050919050565b600060208201905081810360008301526113b381611377565b9050919050565b7f41646472657373206e6f7420676976656e2e0000000000000000000000000000600082015250565b60006113f060128361133d565b91506113fb826113ba565b602082019050919050565b6000602082019050818103600083015261141f816113e3565b9050919050565b7f5461784964206e6f7420676976656e2e00000000000000000000000000000000600082015250565b600061145c60108361133d565b915061146782611426565b602082019050919050565b6000602082019050818103600083015261148b8161144f565b9050919050565b600081905092915050565b50565b60006114ad600083611492565b91506114b88261149d565b600082019050919050565b60006114ce826114a0565b9150819050919050565b60006114e382610f82565b6114ed8185611492565b93506114fd818560208601610f9e565b80840191505092915050565b600061151582846114d8565b915081905092915050565b7f4e616d65206e6f7420676976656e2e0000000000000000000000000000000000600082015250565b6000611556600f8361133d565b915061156182611520565b602082019050919050565b6000602082019050818103600083015261158581611549565b9050919050565b7f41646d696e6973747261746f72206e6f74206578697374732e00000000000000600082015250565b60006115c260198361133d565b91506115cd8261158c565b602082019050919050565b600060208201905081810360008301526115f1816115b5565b9050919050565b7f4e487b7100000000000000000000000000000000000000000000000000000000600052603260045260246000fd5b7f4e487b7100000000000000000000000000000000000000000000000000000000600052601160045260246000fd5b600061166182610d14565b91507fffffffffffffffffffffffffffffffffffffffffffffffffffffffffffffffff820361169357611692611627565b5b600182019050919050565b7f4e487b7100000000000000000000000000000000000000000000000000000000600052602260045260246000fd5b600060028204905060018216806116e557607f821691505b6020821081036116f8576116f761169e565b5b50919050565b60008190508160005260206000209050919050565b60006020601f8301049050919050565b600082821b905092915050565b6000600883026117607fffffffffffffffffffffffffffffffffffffffffffffffffffffffffffffffff82611723565b61176a8683611723565b95508019841693508086168417925050509392505050565b6000819050919050565b60006117a76117a261179d84610d14565b611782565b610d14565b9050919050565b6000819050919050565b6117c18361178c565b6117d56117cd826117ae565b848454611730565b825550505050565b600090565b6117ea6117dd565b6117f58184846117b8565b505050565b5b818110156118195761180e6000826117e2565b6001810190506117fb565b5050565b601f82111561185e5761182f816116fe565b61183884611713565b81016020851015611847578190505b61185b61185385611713565b8301826117fa565b50505b505050565b600082821c905092915050565b600061188160001984600802611863565b1980831691505092915050565b600061189a8383611870565b9150826002028217905092915050565b6118b382610f82565b67ffffffffffffffff8111156118cc576118cb610d65565b5b6118d682546116cd565b6118e182828561181d565b600060209050601f8311600181146119145760008415611902578287015190505b61190c858261188e565b865550611974565b601f198416611922866116fe565b60005b8281101561194a57848901518255600182019150602085019450602081019050611925565b868310156119675784890151611963601f891682611870565b8355505b6001600288020188555050505b505050505050565b7f41646d696e6973747261746f7220616c7265616479206578697374732e000000600082015250565b60006119b2601d8361133d565b91506119bd8261197c565b602082019050919050565b600060208201905081810360008301526119e1816119a5565b905091905056fea2646970667358221220f9c32f3dc0b7c8f1a3524dc91fe902404836abfbbfb6b5e4c378d8b36b0f72a364736f6c63430008110033",
  "linkReferences": {},
  "deployedLinkReferences": {}
}